:020000040800F2
:10000000504400206D020008EF1000086B1000083B
:10001000ED1000089D0300088D140008000000008A
:10002000000000000000000000000000AD0100081A
:100030009F030008000000000902000805110008E5
:10004000870200088702000887020008870200086C
:10005000870200088702000887020008870200085C
:10006000870200088702000887020008870200084C
:10007000870200088702000887020008870200083C
:1000800087020008870200088702000800000000BD
:1000900000000000000000000000000087020008CF
:1000A000870200088702000887020008870200080C
:1000B0008702000887020008D111000887020008A3
:1000C00087020008870200088702000887020008EC
:1000D000870200088702000887020008000000006D
:1000E000870200088702000887020008000000005D
:1000F000000000000000000000000000870200086F
:10010000000000008702000887020008870200083C
:1001100000000000000000000000000000000000DF
:10012000870200088702000887020008870200088B
:10013000870200080000000000000000000000002E
:10014000000000000000000000000000870200081E
:10015000870200088702000887020008870200085B
:10016000870200088702000800000000000000006D
:10017000000000000000000000000000000000007F
:1001800000000000870200080000000000000000DE
:100190008702000887020008DFF80CD000F0ECF8B6
:1001A00000480047CD140008504400202C4B19682B
:1001B0000868B0E8F04F80F30988BFF36F8F4FF005
:1001C000000080F3118870470000000008480068B4
:1001D000006880F308884FF0000080F3148862B64E
:1001E00061B6BFF34F8FBFF36F8F00DF00BF00BF5B
:1001F00008ED00E0DFF80C00016841F470010160D7
:10020000704700BF88ED00E0EFF30980BFF36F8F08
:10021000134B1A681EF0100F08BF20ED108A20E95A
:10022000F04F106009B44FF0500080F31188BFF315
:100230004F8FBFF36F8F01F087FD4FF0000080F309
:10024000118809BC19680868B0E8F04F1EF0100F5B
:1002500008BFB0EC108A80F30988BFF36F8F704736
:1002600018000020EFF30580704700000648804723
:1002700006480047FEE7FEE7FEE7FEE7FEE7FEE78B
:10028000FEE7FEE7FEE7FEE7C1110008990100085E
:100290002DE9F05F0546002092469B4688460646BB
:1002A000814640241BE0284641464746224600F04E
:1002B00053F853465A46C01A914110D31146184676
:1002C000224600F03AF82D1A67EB01084F46224605
:1002D0000120002100F031F817EB00094E41201EEB
:1002E000A4F10104DFDC484631462A464346BDE816
:1002F000F09F40EA01039B0703D009E008C9121FE1
:1003000008C0042AFAD203E011F8013B00F8013BCF
:10031000521EF9D27047D2B201E000F8012B491EFB
:10032000FBD270470022F6E710B513460A46044692
:100330001946FFF7F0FF204610BD202A04DB203AC3
:1003400000FA02F1002070479140C2F1200320FA28
:1003500003F3194390407047202A04DB203A21FA26
:1003600002F00021704721FA02F3D040C2F12002CE
:100370009140084319467047064C074D06E0E06877
:1003800040F0010394E8070098471034AC42F6D3DC
:10039000FFF706FF3821000858210008FEE77047E4
:1003A0002DE9F84FDFF8B4A1002201240AF1040B73
:1003B00003254FF00F090BF1040E00BF0B6804FA80
:1003C00002F63340B34272D10F7907F00307012FD1
:1003D00001D0022F16D187684FEA420805FA08FCBF
:1003E00027EA0C07D1F80CC00CFA08FC4CEA070C01
:1003F000C0F808C04768B7430E79C6F300169640A8
:100400003E4346600E79F643B6070DD0C7685600E6
:1004100005FA06FC27EA0C07D1F808C00CFA06FC1E
:100420004CEA070CC0F80CC00E7906F00306022E49
:1004300010D1D60800EB8608D8F8206057074FEA9D
:10044000D76C09FA0CF7BE430F6907FA0CF737436C
:10045000C8F8207006684FEA420C05FA0CF7BE4354
:100460000F7907F0030707FA0CF7374307604E6868
:10047000F6006DD53A4E376847F4804737603668E6
:1004800022F0030706F480460096364E07EB060C72
:10049000DCF8086897073F0F09FA07F826EA08060C
:1004A000DFF8C480404503D14FF000081EE04FE064
:1004B000DFF8B880404502D14FF0010816E0DFF8C0
:1004C000B080404502D14FF002080FE0DFF8A48071
:1004D000404502D14FF0030808E0DFF89C8040451A
:1004E00002D14FF0040801E04FF0070808FA07F8BE
:1004F00048EA0608CCF80888DAF800605746D1F8D0
:1005000004C09E435FEACC3C00D51E433E60DBF84E
:1005100000605F46D1F804C09E435FEA8C3C00D582
:100520001E433E60DEF800607746D1F804C09E436B
:100530005FEACC2C00D51E433E60084F0C373E6866
:10054000D1F804C09E435FEA8C2C00D51E433E6068
:10055000521C102AFFF432AFBDE8F88F003C014076
:1005600044380240003001400000024000040240D4
:1005700000080240000C02400010024000690840E0
:1005800000D001207047426921EA02030A4043EA91
:100590000241816170470AB1816170470904FBE73C
:1005A0000148806870470000080000200248816808
:1005B0000278114481607047080000200B4810B594
:1005C000016841F400710160016841F480610160DB
:1005D000016841F480710160032000F08DF8002073
:1005E00000F006F800F03EF8002010BD003C02408C
:1005F00010B5014688B000221E2000F05DF81E20D4
:1006000000F04CF813480024016841F00401016037
:10061000006805A900F004000690684600F018F98B
:1006200000F036F90C494000B0FBF1F10C480B4AE0
:10063000491E026040F2E732C0E90324C0E9011418
:1006400000F030FB10B1012008B010BD044800F0EC
:1006500057FBF9E74038024040420F0000080040D5
:10066000180300200C4882B0016841F48041016009
:10067000006800F4804000900748001F016841F0C6
:10068000805101600068002200F0805000900F212E
:10069000901E02B000F010B844380240002809DB78
:1006A00000F01F02012191404009800000F1E0208C
:1006B000C0F8001170470000F0B40E4B1B680C46E8
:1006C000C3F30223C3F10705042D00D90425191D26
:1006D000072901D2002300E0DB1E012606FA05F1FE
:1006E000491E214099409E40761E16403143F0BC81
:1006F00000F0CDBE0CED00E0064900F007020868EE
:100700004FF6FF03184040EA0220034A10430860F6
:10071000704700000CED00E00000FA052DE9F047FD
:100720000E46050065D0DFF81481D8F80000F7B256
:1007300000F00700B04207D288F80070D8F8000037
:1007400000F00700B04254D128683D4C810712D513
:10075000400703D5206840F4E05020602878000767
:1007600003D5206840F4604020602068A96820F02C
:10077000F000084320602878C0072DD03049686811
:100780000839012812D0022813D0032811D0096893
:10079000890700292DDA216821F003010143216036
:1007A000FFF7FEFE814641F2883A0EE009688903B0
:1007B000EFE709688901ECE7FFF7F2FEA0EB09011A
:1007C000514502D90320BDE8F0872068696800F030
:1007D0000C00B0EB810FEFD1D8F80010404601F0CB
:1007E0000701B14207D90770006800F00700B04266
:1007F00001D00120E7E72878400705D52068E9689F
:1008000020F4E050084320602878000706D52068CF
:10081000296920F4604040EAC100206000F058F8E7
:100820002168084AC1F30311515CC84006490860B9
:1008300006480068FFF7DCFE0020C4E7003C0240E9
:100840000838024010210008140000200C0000208D
:100850000F2202600C4A136803F00303436013681D
:1008600003F0F0038360136803F4E053C36012687D
:100870004FF4E05303EAD20202610448006800F03A
:10088000070008607047000008380240003C024042
:100890000448054900680968044AC1F38221515C93
:1008A000C84070471400002008380240202100088A
:1008B0000448054900680968044AC1F34231515CA3
:1008C000C84070471400002008380240202100086A
:1008D000154810B5006810F00C02144813D01449E4
:1008E000042A0FD0082A0ED10F4C241F2268236837
:1008F00002F03F025B0207D52068C0F38810A0FB1E
:10090000010106E0084610BD2168C1F38811A1FB72
:1009100000010023FFF7BCFC2168C1F30141491C21
:100920004900B0FBF1F010BD083802400024F4008B
:1009300040787D012DE9F84F04006ED02078DFF873
:100940004C93C007A9F104054AD009F104000168DD
:10095000C1F38101012908D00068C0F38100022899
:100960000AD1D9F80000400206D52868800337D59F
:1009700060680028E1D033E06068B0F5803F10D0B7
:10098000B0F5A02F286810D020F4803028602868A7
:1009900020F4802028606068A8B1FFF701FE0646B9
:1009A0000DE0286840F48030F4E740F480202860AF
:1009B000F7E700BFFFF7F4FD801B642873D82868B1
:1009C0008003F7D50CE0FFF7EBFD064605E000BF1E
:1009D000FFF7E6FD801B6428F0D828688003F7D471
:1009E0002078DFF8AC8280074FF0000A3ED5A74898
:1009F000001D016811F00C0F08D00068C0F38100E1
:100A000002280BD1D9F80000400207D428688007DB
:100A100016D5E068012800D112E033E1E068B8B1F2
:100A20000120C8F80000FFF7BBFD064605E000BF47
:100A3000FFF7B6FD801B0228C0D828688007F7D5CD
:100A40002868216920F0F80040EAC10028600DE024
:100A5000C8F800A0FFF7A4FD064604E0FFF7A0FDDC
:100A6000801B02281FD828688007F7D42078000749
:100A700022D5864F87486169703771B101210160C5
:100A8000FFF78EFD064604E0FFF78AFD801B022873
:100A900009D838688007F7D50EE0C0F800A0FFF746
:100AA0007FFD064605E082E0FFF77AFD801B022805
:100AB0007DD838688007F7D42078400768D5DFF8FC
:100AC000CCB100270BF13C0BDBF80000C0000BD4CD
:100AD000DBF8001041F08051CBF80010DBF800008B
:100AE000012700F0805000906B4E3068C00510D494
:100AF000306840F480703060FFF752FD009005E0F0
:100B0000FFF74EFD0099401A022850D83068C00502
:100B1000F6D55E4EA0686C3601280FD005283068E7
:100B200010D020F001003060306820F00400306008
:100B3000A068B8B1FFF734FD00900FE0306840F0D6
:100B40000100F4E740F004003060F7E7FFF728FD0C
:100B50000099411A41F28830814266D83068800796
:100B6000F4D50EE0FFF71CFD009007E0FFF718FD3D
:100B70000099411A41F28830814256D83068800786
:100B8000F4D42FB1DBF8001021F08051CBF8001025
:100B9000A069C8B33D49091D0968C1F38101022953
:100BA0004AD00228504607D0C8F8600000E03CE078
:100BB000FFF7F6FC04463BE04746C8F86000FFF745
:100BC000EFFC064605E000BFFFF7EAFC801B0228A9
:100BD0002BD828688001F7D4D4E907010843A16A1B
:100BE0002E4A490802EB0141626A41EA8211084338
:100BF00094F82C1040EA0161C9F800100120386611
:100C0000FFF7CEFC044606E03EE000BFFFF7C8FC5D
:100C1000001B022809D828688001F7D534E000BFFE
:100C2000FFF7BEFC001B022802D90320BDE8F88FA5
:100C300028688001F4D427E00128F7D0D9F8000013
:100C4000E26900F4800191421CD1226A00F03F0168
:100C5000914217D147F6C071626A0140B1EB821F21
:100C600010D1A26A4FF0FF3300F4403103EB52027F
:100C7000B1EB024F06D194F82C1000F07060B0EB8D
:100C8000016F01D00120D1E70020CFE704380240F6
:100C900000004742800E4742007000400000FFFF06
:100CA0007047704710B5040003D094F83D0010B1B0
:100CB00007E0012010BD002084F83C00204600F031
:100CC0001EF8022084F83D00211D206800F086FAFD
:100CD000012084F8460084F83E0084F83F0084F840
:100CE000400084F8410084F8420084F8430084F80E
:100CF000440084F8450084F83D00002010BD704792
:100D000090F83D10012901D001207047022180F8A0
:100D10003D100168CA6842F00102CA6000680E49CD
:100D200088420ED0B0F1804F0BD00C49884208D0D9
:100D30000B49884205D00B49884202D00A498842B3
:100D400004D1816801F00701062903D0016841F050
:100D500001010160002070470000014000040040D4
:100D600000080040000C004000400140704770B592
:100D70000446006801694FF00005C943890715D48E
:100D8000C168C943890711D4E91E01610120207798
:100D9000206880698007204602D0FFF7E7FF04E063
:100DA00000F098F8204600F096F825772068016951
:100DB000C943490717D4C168C943490713D46FF021
:100DC00004010161022020772068806910F4407FCF
:100DD000204602D0FFF7CAFF04E000F07BF820466F
:100DE00000F079F8257720680169C943090716D40E
:100DF000C168C943090712D46FF0080101610420DA
:100E000020772068C0698007204602D0FFF7AEFF38
:100E100004E000F05FF8204600F05DF825772068D8
:100E20000169C943C90617D4C168C943C90613D4A7
:100E30006FF010010161082020772068C06910F46C
:100E4000407F204602D0FFF791FF04E000F042F817
:100E5000204600F040F8257720680169C943C9079A
:100E600008D1C168C943C90704D1891E0161204660
:100E700000F032F820680169C943090609D4C16845
:100E8000C943090605D46FF0800101612046FFF7D0
:100E900007FF20680169C943490609D4C168C943ED
:100EA000490605D46FF040010161204600F01EF8AC
:100EB00020680169C94389060BD4C168C943890602
:100EC00007D46FF0200101612046BDE87040FFF7B4
:100ED000E8BE70BD7047704700680349884201D181
:100EE000FFF764BB7047000000080040704770B512
:100EF000040004D094F83D00002510B106E0012064
:100F000070BD84F83C50204600F022F8242084F87C
:100F10003D002068C16821F40051C160204600F006
:100F2000FDF92068016921F490410161206841695F
:100F300021F02A0141612068C16841F40051C1607B
:100F40002564202084F83D0084F83E00002070BD18
:100F500010B586B0044614216846FFF7E3F913493B
:100F60002068884220D112480021026842F40032F1
:100F70000260006800F4003005900D4810380268E7
:100F800042F001020260006800F0010005900C20B0
:100F900000900220CDE90101032003900720049076
:100FA00069460448FFF7FCF906B010BD0044004054
:100FB00040380240000002402DE9F843044690F812
:100FC0003D001F4616460D4620284CD1C5B1BEB186
:100FD00094F83C00012846D0012084F83C004FF0F2
:100FE0000008C4F84080212084F83D00FFF7D8FABB
:100FF000A6848146E684A068B0F5805F03D004E053
:101000000120BDE8F883206928B12E465FF0000575
:1010100084F83C800EE00026FAE78021204600F0AC
:1010200003FAA0B9AEB116F8010B21684860E08C54
:10103000401EE084E08C4B464FF0000200970028F1
:10104000EBD14FF04001204600F0EEF930B1032023
:10105000D7E735F8020BC0F30800E6E7202084F854
:101060003D000020CDE70220CBE7FEE7F0B587B0DA
:1010700014216846FFF756F919480024016841F029
:1010800080010160016801F080010591016841F073
:1010900001010160016801F001010591016841F061
:1010A0000801016000680F4F00F008004FF400567F
:1010B0000590002231463846FFF76DFA0125CDE94B
:1010C0000054694608480294FFF76AF90096CDE992
:1010D0000154694638460394FFF762F907B0F0BD42
:1010E00030380240000C024000000240FEE7FEE7FC
:1010F00001464FF4FA731E220148FFF75DBF00005E
:101100008000002010B5502080F31188BFF34F8F6E
:10111000BFF36F8F00F018FF18B104494FF08050F3
:101120000860002080F3118810BD000004ED00E08D
:1011300030B593B030216846FFF7F4F814210CA8BD
:10114000FFF7F0F81C480024016841F0805101606D
:10115000006800F0805011901848016841F4404147
:1011600001600068022500F44040119001200390C6
:1011700010200490009506950820CDE907406420D2
:10118000CDE9090504200B906846FFF7D3FB08B1B1
:1011900072B6FEE70F20CDE90C054FF48050CDE983
:1011A0000E4003210CA81094FFF7B8FA002801D0D4
:1011B00072B6FEE713B030BD403802400070004008
:1011C0000248016841F470010160704788ED00E059
:1011D0000148FFF7CCBD000018030020F0B50268FD
:1011E0001D4B1E4C9F031E4D1E4E984207D0B84209
:1011F00005D0A04203D0A84201D0B04204D122F0D1
:10120000700C4A6842EA0C02984210D0B8420ED0E4
:10121000A0420CD0A8420AD0B04208D0124CA04242
:1012200005D0124CA04202D0114CA04203D122F4AE
:101230004074CA6822434C6922F080022243026053
:101240008A68C2620A688262984201D109690163B0
:1012500001214161F0BD0000000001400004004098
:1012600000080040000C00400040014000440140E4
:10127000004801400CA0FFF73BFF114C114E4FF40A
:10128000005501212046FFF779F930B10EA0FFF794
:101290002FFF002000F0C4FCF3E70122294630466E
:1012A000FFF779F9EDE70000627574746F6E5F7493
:1012B00061736B2069732072756E696E670D0A0029
:1012C00000000240000C0240627574746F6E5F741F
:1012D00061736B2069732064656C657465640D0AC5
:1012E0002000000006A0FFF703FF0B4D4FF4005451
:1012F000C82000F047F921462846FFF744F9F7E7F0
:101300006C65645F5461736B2069732072756E6ED7
:10131000696E670A00000000000C024070B50446C8
:1013200000680169E26821F44051114301612169BB
:10133000A068E26908436169114308432168CA68EB
:1013400049F20C639A430243CA6020684169A2696A
:1013500021F440711143416131492068884202D033
:101360003049884202D1FFF7A3FA01E0FFF790FA73
:10137000E2690023192164253226B2F5004F626824
:1013800028D0A0FB0101930F9200FEF781FF0146D8
:10139000B0FBF5F06FF01802504301EB800006EB54
:1013A0000010B0FBF5F000F0F002B1FBF5F002EB3D
:1013B0000012B1FBF5F06FF01803584301EB800009
:1013C00006EB0010B0FBF5F000F00F0021681044B0
:1013D000886070BDA0FB010192185B41FEF758FFC9
:1013E0000146B0FBF5F00201B1FBF5F06FF0180318
:1013F000584301EB800006EBC000B0FBF5F000F0B5
:10140000F80002EB4002B1FBF5F0584301EB80001D
:1014100006EBC000B0FBF5F000F00700D6E70000D7
:1014200000100140001401402DE9F0419846174694
:101430000E460446069D1DE0681C1BD02DB1FFF72B
:10144000AFF8A0EB0800A84214D92068C16821F4C5
:10145000D071C1602068416921F001014161202003
:1014600084F83D0084F83E00002084F83C0003200E
:10147000BDE8F0812068006836EA000004D0002052
:10148000B842D9D00020F3E70120F9E7FEE70907C9
:10149000090E002804DB00F1E02080F800147047FA
:1014A00000F00F0000F1E02080F8141D704702E00A
:1014B00008C8121F08C1002AFAD1704770470020DF
:1014C00001E001C1121F002AFBD1704796B0FFF75F
:1014D00075F8FFF72DFEFFF7C9FD1D481B490C22CB
:1014E00001604FF4E131416000218160C160C0E9D9
:1014F00004128161C161FFF7FAFC08B172B6FEE720
:101500001C2214A16846FEF7F4FE4FF4FA731B2266
:1015100069460F48FFF750FD1C22154907A8FEF742
:10152000E8FE002107A800F039F8124C10491C22EF
:1015300020601C310EA8FEF7DCFE00210EA800F092
:101540002DF8606000F025F8FEE700000044004040
:1015500080000020546869732069732064656C659D
:101560007465207461736B2064656D6F0D0A0000F3
:10157000D82000080000002001460020842900D067
:10158000C81C704710B500B9012000F023FB0020F3
:1015900010BD10B500F09AFB002010BD7FB50D46C0
:1015A00004464169B0F9080081B1A16971B1FFF742
:1015B000E3FFD4E905128DE80700D4E900102B46BB
:1015C000226900F096FC039004B070BDFFF7D4FFD1
:1015D00003A9CDE90001208A2B4682B2D4E900108C
:1015E00000F05AFC012801D00020EDE70398EBE75A
:1015F0002DE9F041184C0F460546E6682068001DAD
:1016000000F020FA38B9206890F82C1001208840AA
:10161000216981432161681C07D137B12168BDE888
:10162000F0410E48091D00F051BA20683544B5421A
:101630004560216805D2A06BBDE8F041091D00F0AE
:101640002DBA606B091D00F029FAA06A854200D20C
:10165000A562BDE8F0810000180000203C040020D5
:101660002DE9F041054600F03DFA2E4CA068401CE3
:10167000A06020682C4F10B1606940B32DE0256058
:10168000A068012829D1002606EB860007EB800020
:1016900000F0F6F9761C072EF6D323488C3000F0C4
:1016A000EFF92148A03000F0EBF91F48B43000F00A
:1016B000E7F91D48C83000F0E3F91B48DC3000F0C2
:1016C000DFF919488C3060631430A06305E02068AE
:1016D000E96AC06A884200D82560606A401C60627E
:1016E000E96A0120226988401043206101EB8100F2
:1016F00007EB8000291D00F0E9F900F013FA60699A
:1017000000280CD02068E96AC06A884207D20749DD
:101710004FF080500860BFF34F8FBFF36F8FBDE86D
:10172000F0810000180000206003002004ED00E0BC
:1017300010B5044690F8510058B101280CD0022889
:101740000FD0502080F31188BFF34F8FBFF36F8FFE
:10175000FEE7206B00F0FAF92046BDE8104000F0EB
:10176000F5B910BD10484FF47051420706D0C01DA6
:101770000D4920F00700411AC1F570510B4A0023B2
:101780000144C2E900030839183A21F00701116049
:101790004B600B600B1AC0E9001393604FF00040E0
:1017A0005360506170470000500400206C0000201E
:1017B000144E154CA6F1C8074FF08058DFF84C9036
:1017C00012E000BF00F08EF9F068C568281D00F037
:1017D00039F9A068401EA0606068401E606000F09B
:1017E000A1F92846FFF7A4FF60680028EAD138680D
:1017F0000128F9D9C9F80080BFF34F8FBFF36F8F6D
:10180000F2E70000280400201800002004ED00E0AA
:101810002DE9F0479A46DDE9098481466FF003031C
:10182000206B03EB82021044089E20F00707780724
:1018300007D0502080F31188BFF34F8FBFF36F8F15
:10184000FEE7002561B1002023180A5C83F83420EC
:101850000A5C12B1401C1028F6D384F8435001E012
:1018600084F83450072E00D30626E662C4E91165D9
:10187000201D00F010F904F1180000F00CF92461AB
:10188000C6F107006462A061E56484F850505246D6
:101890004946384600F0C0F82060B8F1000F01D08A
:1018A000C8F80040BDE8F08730B5114900E01146A6
:1018B0000A688242FBD34B685C18844203D14068BB
:1018C00018444860084643681C18944209D1084CE3
:1018D000183C2468A24209D052681A4442600A683F
:1018E00012680260814200D0086030BD0460F9E7F0
:1018F0006C0000200648416B096829B1416BC9683A
:10190000C9684968816270474FF0FF31FAE700000B
:101910001800002008484068401C4FF0500080F339
:10192000118804D0BFF34F8FBFF36F8FFEE7BFF373
:101930004F8FBFF36F8FFEE7740000202DE9F04159
:101940000546002700F0F8F9324E306808B9FFF775
:1019500009FF706905424ED1C5B3083568070ED03E
:1019600005F00700C0F108000544680707D05020C3
:1019700080F31188BFF34F8FBFF36F8FFEE72DB356
:101980007068854237D82348183001460C6801E05A
:1019900020460C466168A94202D221680029F7D18D
:1019A00031688C4227D00768216801606068083779
:1019B000411B10290FD96019420708D0502080F32D
:1019C0001188BFF34F8FBFF36F8FFEE713E04160C5
:1019D0006560FFF769FF61687068401A7060B268FF
:1019E000904200D2B060706901430020C4E9000158
:1019F000F068401CF06000F00DFB780707D0502025
:101A000080F31188BFF34F8FBFF36F8FFEE7384627
:101A1000BDE8F0815400002010B5031F4FF0807422
:101A20001C601B1F21F001011960191F044B0B6082
:101A300014390A60091F6FF0020244380A6010BDB1
:101A400015190008D0E9013201699A60D0E9012333
:101A50005A604A68824201D182684A60002202616B
:101A60000868401E0860086870470000034B036068
:101A700003F154000860802010607047C40000200B
:101A800000F108014FF0FF32C0E90112C1600161AD
:101A900000210160704700210161704730B50B687B
:101AA0005A1C02D000F1080202E0026904E022465A
:101AB000546825689D42FAD953684B6099608A60E2
:101AC000516008610168491C016030BD42684A608C
:101AD00093688B6093685960916008610168491C44
:101AE00001607047502080F31188BFF34F8FBFF320
:101AF0006F8F0A494868401C486001280CD108488B
:101B0000006810F0FF0F07D0502080F31188BFF35A
:101B10004F8FBFF36F8FFEE7704700007400002007
:101B200004ED00E00849486828B1401E486001D132
:101B300080F311887047502080F31188BFF34F8FD6
:101B4000BFF36F8FFEE700007400002070B500281F
:101B50002AD0164DA0F1080460686969084207D1CF
:101B6000502080F31188BFF34F8FBFF36F8FFEE7D4
:101B700022683AB1502080F31188BFF34F8FBFF332
:101B80006F8FFEE78843606000F0D6F86068696890
:101B9000084468602046FFF787FE2869401C2861DA
:101BA000BDE8704000F036BA70BD0000540000205F
:101BB0004FF0E02000210161816105494FF47A7204
:101BC0000968B1FBF2F1491E4161072101617047CB
:101BD0001400002010B5020014D00F48006B38B17B
:101BE000502080F31188BFF34F8FBFF36F8FFEE754
:101BF00000F0A2F800211046FFF7FAFC00F00AFA04
:101C0000002807D105494FF080500860BFF34F8F7F
:101C1000BFF36F8F10BD00001800002004ED00E03E
:101C200070B50546FFF75EFF254C05B92568281DF0
:101C3000FFF708FF58B9E86A224A00EB800152F822
:101C4000211021B901218140206988432061A86ABF
:101C500018B105F11800FFF7F5FE606A401C6062DC
:101C60002068854208D11748291DC830FFF72EFF8C
:101C70006068401C606007E0A068401EA0602846C5
:101C8000FFF756FDFFF736FEFFF74CFF60690028AF
:101C900014D02068854211D1206B38B1502080F3D8
:101CA0001188BFF34F8FBFF36F8FFEE706494FF0E8
:101CB00080500860BFF34F8FBFF36F8F70BD00007F
:101CC000180000206003002004ED00E010B586B08D
:101CD0000024039405AA04A903A80494FFF7C6FEF0
:101CE000DDE903010094CDE9011000230EA11048A5
:101CF000059A00F0FEF80F490028C86211D0502064
:101D000080F31188BFF34F8FBFF36F8F4FF0FF3019
:101D1000886201204861CC6006B0BDE8104000F048
:101D200041B806B010BD000049444C450000000019
:101D3000B1170008180000200248016B491C01631C
:101D400070470000180000201448016B11B10121F8
:101D5000C16170470021C1610169B1FA81F1C1F12E
:101D60001F0101EB81020E4951F822306BB101EBEA
:101D7000820101F108034A6852684A609A4201D11F
:101D800052684A60D16801607047502080F3118822
:101D9000BFF34F8FBFF36F8FFEE7000018000020E6
:101DA000600300201CB537480168374A914207D1CB
:101DB000502080F31188BFF34F8FBFF36F8FFEE782
:101DC00000683149491E884207D1502080F31188AC
:101DD000BFF34F8FBFF36F8FFEE72C490878019058
:101DE000FF20087008788DF800009DF800009DF82D
:101DF000002000F0F000904207D0502080F31188BE
:101E0000BFF34F8FBFF36F8FFEE79DF80000204CAC
:101E100000F0500020700720A06005E09DF8002031
:101E200052008DF80020401E9DF800201206F5D4C7
:101E3000A060032807D0502080F31188BFF34F8F94
:101E4000BFF36F8FFEE74FF44070A06001980870F9
:101E50000C482030016841F470010160016841F0D4
:101E600070410160FFF7A4FE00206060FEF7C2F938
:101E70000848016841F040410160FEF7A7F90020E1
:101E80001CBD000000ED00E071C20F4100E400E065
:101E90007400002034EF00E02DE9FF5F8346DDE9A8
:101EA0000E87994616468A469000FFF747FD0500C3
:101EB0001CD05420FFF742FD040014D000202563FD
:101EC00084F85100CDE90240CDE900874B46324607
:101ED00051465846FFF79CFC2046FFF7C1FB012006
:101EE00004B0BDE8F09F2846FFF730FE4FF0FF300A
:101EF000F6E7F0B585B0DDE90B640A9DA6B1DCB16B
:101F0000542700972663022684F85160002604AF08
:101F1000CDE90246CDE90057FFF77AFC2046FFF7EE
:101F20009FFB049805B0F0BD502080F31188BFF3EB
:101F30004F8FBFF36F8FFEE7502080F31188BFF300
:101F40004F8FBFF36F8FFEE72DE9F0412F4C002636
:101F5000206B28B1A069401CA0613046BDE8F0812B
:101F6000E5686D1CE56013D1606B006838B15020E6
:101F700080F31188BFF34F8FBFF36F8FFEE7606B65
:101F8000A16B6163A063206A401C2062FFF7B2FC72
:101F9000A06ADFF87C80854209D3606B0068A0B13D
:101FA000606BC068C7687868854211D2A0622068FB
:101FB000C06A00EB800158F82100012800D90126F1
:101FC000E0690028C9D00126C7E74FF0FF30EDE7F0
:101FD000381DFFF737FDB86A18B107F11800FFF791
:101FE00031FDF96A0120226988401043206101EB2C
:101FF000810108EB8100391DFFF768FDF86A21684F
:10200000C96A8842C9D30126C7E70000180000202A
:10201000600300202DE9F0472C4D00242746286B53
:1020200038B1FFF75FFD286B401E2863286B40B175
:1020300046E0502080F31188BFF34F8FBFF36F8FBE
:10204000FEE7A968224E0120D1B3A6F1B40980466B
:102050003068E8B1F068C46804F11800FFF7F2FCDA
:10206000201DFFF7EFFCE06A2A6908FA00F111432E
:10207000296100EB800109EB8100211DFFF726FD9E
:10208000E06A2968C96A8842E2D3C5F81C80DFE7A4
:102090000CB1FFF72FFCAC6944B14646FFF754FF83
:1020A00000B1EE61641EF9D10020A861E86938B181
:1020B0000849012738070860BFF34F8FBFF36F8FC0
:1020C000FFF730FD3846BDE8F0870000180000201B
:1020D0001404002004ED00E028210008E5120008A7
:1020E0000000000000000000F401000000000000FB
:1020F00000000000302100087512000802000000F6
:1021000000000000F40100000000000000000000DA
:102110000000000000000000010203040607080997
:1021200000000000010203045461736B31000000E1
:102130005461736B32000000582100080000002039
:1021400080000000AE140008D821000880000020A4
:10215000D0430000BE140008000000000000000092
:102160000100000010000000000000000024F40046
:10217000000000000000000000000000000000005F
:10218000000000000000000000000000000000004F
:10219000000000000000000000000000000000003F
:1021A000000000000000000000000000000000002F
:1021B000000000000000000000000000000000001F
:1021C000000000000000000000000000000000000F
:0821D000AAAAAAAA000000005F
:040000050800019955
:00000001FF
