:020000040800F2
:10000000784500206D020008C3180008CD170008CD
:10001000C1180008F30300086D1D0008000000006F
:10002000000000000000000000000000AD0100081A
:10003000F503000800000000090200081919000873
:10004000870200088702000887020008870200086C
:10005000870200088702000887020008870200085C
:10006000870200088702000887020008870200084C
:10007000870200088702000887020008870200083C
:1000800087020008870200088702000800000000BD
:1000900000000000000000000000000087020008CF
:1000A000870200088702000887020008870200080C
:1000B0008702000887020008051A00088702000866
:1000C00087020008870200088702000887020008EC
:1000D0008702000887020008611D00080000000078
:1000E000870200088702000887020008000000005D
:1000F000000000000000000000000000870200086F
:10010000000000008702000887020008870200083C
:1001100000000000000000000000000000000000DF
:10012000870200088702000887020008870200088B
:10013000870200080000000000000000000000002E
:10014000000000000000000000000000870200081E
:10015000870200088702000887020008870200085B
:10016000870200088702000800000000000000006D
:10017000000000000000000000000000000000007F
:1001800000000000870200080000000000000000DE
:100190008702000887020008DFF80CD000F0ECF8B6
:1001A00000480047AD1D0008784500202C4B196819
:1001B0000868B0E8F04F80F30988BFF36F8F4FF005
:1001C000000080F3118870470000000008480068B4
:1001D000006880F308884FF0000080F3148862B64E
:1001E00061B6BFF34F8FBFF36F8F00DF00BF00BF5B
:1001F00008ED00E0DFF80C00016841F470010160D7
:10020000704700BF88ED00E0EFF30980BFF36F8F08
:10021000134B1A681EF0100F08BF20ED108A20E95A
:10022000F04F106009B44FF0500080F31188BFF315
:100230004F8FBFF36F8F02F0E5F94FF0000080F3AE
:10024000118809BC19680868B0E8F04F1EF0100F5B
:1002500008BFB0EC108A80F30988BFF36F8F704736
:100260001C010020EFF3058070470000064880471E
:1002700006480047FEE7FEE7FEE7FEE7FEE7FEE78B
:10028000FEE7FEE7FEE7FEE7F51900089901000822
:100290002DE9F05F0546002092469B4688460646BB
:1002A000814640241BE0284641464746224600F04E
:1002B00053F853465A46C01A914110D31146184676
:1002C000224600F03AF82D1A67EB01084F46224605
:1002D0000120002100F031F817EB00094E41201EEB
:1002E000A4F10104DFDC484631462A464346BDE816
:1002F000F09F40EA01039B0703D009E008C9121FE1
:1003000008C0042AFAD203E011F8013B00F8013BCF
:10031000521EF9D27047D2B201E000F8012B491EFB
:10032000FBD270470022F6E710B513460A46044692
:100330001946FFF7F0FF204610BD202A04DB203AC3
:1003400000FA02F1002070479140C2F1200320FA28
:1003500003F3194390407047202A04DB203A21FA26
:1003600002F00021704721FA02F3D040C2F12002CE
:100370009140084319467047064C074D06E0E06877
:1003800040F0010394E8070098471034AC42F6D3DC
:10039000FFF706FF002C0008202C000870B58C1811
:1003A00010F8015B15F0070301D110F8013B2A1189
:1003B00006D110F8012B03E010F8016B01F8016B76
:1003C0005B1EF9D12B0705D40023521E0DD401F872
:1003D000013BFAE710F8013BCB1A921C03E013F83B
:1003E000015B01F8015B521EF9D5A142D8D3002070
:1003F00070BDFEE770472DE9F0410446876D00F0BF
:1004000047F9064694F835000025022806D08020DA
:10041000606584F834500120BDE8F08120680168EF
:1004200021F0160101602068416921F080014161DD
:10043000206C08B9A06C20B12068016821F0080187
:1004400001602068016821F0010101600BE000F00B
:100450001FF9801B052806D92020606504F8345F49
:1004600003206070D8E720680068C007EFD194F8D7
:100470005C103F208840B86004F8345F0120607051
:100480000020C9E790F83510022903D0802141658A
:1004900001207047052180F835100068016821F0BF
:1004A00001010160002070472DE9F84FDFF8B4A189
:1004B000002201240AF1040B03254FF00F090BF170
:1004C000040E00BF0B6804FA02F63340B34272D147
:1004D0000F7907F00307012F01D0022F16D187688B
:1004E0004FEA420805FA08FC27EA0C07D1F80CC0CD
:1004F0000CFA08FC4CEA070CC0F808C04768B74380
:100500000E79C6F3001696403E4346600E79F643D8
:10051000B6070DD0C768560005FA06FC27EA0C0797
:10052000D1F808C00CFA06FC4CEA070CC0F80CC065
:100530000E7906F00306022E10D1D60800EB8608CD
:10054000D8F8206057074FEAD76C09FA0CF7BE437A
:100550000F6907FA0CF73743C8F8207006684FEAAE
:10056000420C05FA0CF7BE430F7907F0030707FAB0
:100570000CF7374307604E68F6006DD53A4E376882
:1005800047F480473760366822F0030706F4804658
:100590000096364E07EB060CDCF8086897073F0F0D
:1005A00009FA07F826EA0806DFF8C480404503D1B7
:1005B0004FF000081EE04FE0DFF8B880404502D160
:1005C0004FF0010816E0DFF8B080404502D14FF04F
:1005D00002080FE0DFF8A480404502D14FF0030885
:1005E00008E0DFF89C80404502D14FF0040801E0AC
:1005F0004FF0070808FA07F848EA0608CCF8088818
:10060000DAF800605746D1F804C09E435FEACC3C5C
:1006100000D51E433E60DBF800605F46D1F804C0A1
:100620009E435FEA8C3C00D51E433E60DEF80060CE
:100630007746D1F804C09E435FEACC2C00D51E4318
:100640003E60084F0C373E68D1F804C09E435FEA15
:100650008C2C00D51E433E60521C102AFFF432AF92
:10066000BDE8F88F003C01404438024000300140B2
:10067000000002400004024000080240000C02405A
:10068000001002400AB1816170470904FBE70000D5
:1006900001488068704700000C0100200248816812
:1006A00002781144816070470C0100200B4810B59E
:1006B000016841F400710160016841F480610160EA
:1006C000016841F480710160032000F08DF8002082
:1006D00000F006F800F03EF8002010BD003C02409B
:1006E00010B5014688B000221E2000F05DF81E20E3
:1006F00000F04CF813480024016841F00401016047
:10070000006805A900F004000690684600F0C2F9F0
:1007100000F0E0F90C494000B0FBF1F10C480B4A45
:10072000491E026040F2E732C0E90324C0E9011427
:1007300000F031FD10B1012008B010BD044800F0F8
:1007400059FDF9E74038024040420F0000080040E0
:100750003C0400200C4882B0016841F480410160F3
:10076000006800F4804000900748001F016841F0D5
:10077000805101600068002200F0805000900F213D
:10078000901E02B000F010B844380240002809DB87
:1007900000F01F02012191404009800000F1E0209B
:1007A000C0F8001170470000F0B40E4B1B680C46F7
:1007B000C3F30223C3F10705042D00D90425191D35
:1007C000072901D2002300E0DB1E012606FA05F10D
:1007D000491E214099409E40761E16403143F0BC90
:1007E00001F0C5BA0CED00E0064900F00702086808
:1007F0004FF6FF03184040EA0220034A1043086006
:10080000704700000CED00E00000FA052DE9F84308
:10081000044600684FF00109C1074FF0000601D1FE
:10082000400729D5DFF82081C8F86860FFF730FF5E
:100830000746464D05E000BFFFF72AFFC01B022810
:1008400059D828680001F7D4A068217B800140EACC
:100850000170616808433D4984310860C8F86890B8
:10086000FFF716FF074604E0FFF712FFC01B022840
:1008700041D828680001F7D52078800752D5334841
:100880004030016841F0805101600068304D00F057
:1008900080500090286840F480702860FFF7F8FED0
:1008A000074604E0FFF7F4FEC01B022823D828689F
:1008B000C005F7D5254D7035286810F4407020D05C
:1008C000218A01F4407181421BD02868214920F41B
:1008D0004070C1F800900E6028602868C00710D0F2
:1008E000FFF7D6FE064641F2883707E0FFF7D0FE55
:1008F000801BB84202D90320BDE8F883286880072E
:10090000F4D521691148C1F301220830032A12D01D
:10091000016821F4F81101602868218AC1F30B01F4
:10092000084328602078000703D50B49207DC1F8D3
:10093000E0010020E0E70268084B22F4F8121940B9
:100940000A430260E8E70000000047420038024026
:1009500000700040400E474200104742FFFCFF0F6E
:100960002DE9F0470E46050065D0DFF81481D8F870
:100970000000F7B200F00700B04207D288F800701C
:10098000D8F8000000F00700B04254D128683D4C70
:10099000810712D5400703D5206840F4E05020605D
:1009A0002878000703D5206840F460402060206864
:1009B000A96820F0F000084320602878C0072DD0F7
:1009C000304968680839012812D0022813D003285A
:1009D00011D00968890700292DDA216821F0030167
:1009E00001432160FFF754FE814641F2883A0EE050
:1009F00009688903EFE709688901ECE7FFF748FE1A
:100A0000A0EB0901514502D90320BDE8F087206819
:100A1000696800F00C00B0EB810FEFD1D8F800103E
:100A2000404601F00701B14207D90770006800F0A5
:100A30000700B04201D00120E7E72878400705D53C
:100A40002068E96820F4E050084320602878000717
:100A500006D52068296920F4604040EAC100206082
:100A600000F058F82168084AC1F30311515CC840EE
:100A70000649086006480068FFF732FE0020C4E718
:100A8000003C024008380240C82B00081801002032
:100A9000100100200F2202600C4A136803F00303C8
:100AA0004360136803F0F0038360136803F4E053BA
:100AB000C36012684FF4E05303EAD20202610448B3
:100AC000006800F007000860704700000838024026
:100AD000003C02400448054900680968044AC1F323
:100AE0008221515CC840704718010020083802403C
:100AF000D82B00080448054900680968044AC1F376
:100B00004231515CC840704718010020083802404B
:100B1000D82B0008154810B5006810F00C021448D6
:100B200013D01449042A0FD0082A0ED10F4C241FC9
:100B30002268236802F03F025B0207D52068C0F3F9
:100B40008810A0FB010106E0084610BD2168C1F332
:100B50008811A1FB00010023FFF79AFB2168C1F374
:100B60000141491C4900B0FBF1F010BD08380240BA
:100B70000024F40040787D012DE9F84F04006ED088
:100B80002078DFF84C93C007A9F104054AD009F199
:100B900004000168C1F38101012908D00068C0F395
:100BA000810002280AD1D9F80000400206D5286841
:100BB000800337D560680028E1D033E06068B0F585
:100BC000803F10D0B0F5A02F286810D020F48030DE
:100BD0002860286820F4802028606068A8B1FFF7AA
:100BE00057FD06460DE0286840F48030F4E740F4F5
:100BF00080202860F7E700BFFFF74AFD801B6428CC
:100C000073D828688003F7D50CE0FFF741FD06464E
:100C100005E000BFFFF73CFD801B6428F0D8286882
:100C20008003F7D42078DFF8AC8280074FF0000A09
:100C30003ED5A748001D016811F00C0F08D00068D0
:100C4000C0F3810002280BD1D9F80000400207D47C
:100C50002868800716D5E068012800D112E033E14A
:100C6000E068B8B10120C8F80000FFF711FD0646A2
:100C700005E000BFFFF70CFD801B0228C0D82868E4
:100C80008007F7D52868216920F0F80040EAC10004
:100C900028600DE0C8F800A0FFF7FAFC064604E063
:100CA000FFF7F6FC801B02281FD828688007F7D4BE
:100CB0002078000722D5864F87486169703771B167
:100CC00001210160FFF7E4FC064604E0FFF7E0FCC9
:100CD000801B022809D838688007F7D50EE0C0F8D5
:100CE00000A0FFF7D5FC064605E082E0FFF7D0FC48
:100CF000801B02287DD838688007F7D42078400709
:100D000068D5DFF8CCB100270BF13C0BDBF8000015
:100D1000C0000BD4DBF8001041F08051CBF800107C
:100D2000DBF80000012700F0805000906B4E306827
:100D3000C00510D4306840F480703060FFF7A8FC24
:100D4000009005E0FFF7A4FC0099401A022850D853
:100D50003068C005F6D55E4EA0686C3601280FD00D
:100D60000528306810D020F001003060306820F095
:100D700004003060A068B8B1FFF78AFC00900FE073
:100D8000306840F00100F4E740F004003060F7E71D
:100D9000FFF77EFC0099411A41F28830814266D803
:100DA00030688007F4D50EE0FFF772FC009007E092
:100DB000FFF76EFC0099411A41F28830814256D803
:100DC00030688007F4D42FB1DBF8001021F0805197
:100DD000CBF80010A069C8B33D49091D0968C1F3EB
:100DE000810102294AD00228504607D0C8F8600085
:100DF00000E03CE0FFF74CFC04463BE04746C8F807
:100E00006000FFF745FC064605E000BFFFF740FC29
:100E1000801B02282BD828688001F7D4D4E9070169
:100E20000843A16A2E4A490802EB0141626A41EA7D
:100E30008211084394F82C1040EA0161C9F80010AF
:100E400001203866FFF724FC044606E03EE000BFC0
:100E5000FFF71EFC001B022809D828688001F7D57F
:100E600034E000BFFFF714FC001B022802D9032066
:100E7000BDE8F88F28688001F4D427E00128F7D076
:100E8000D9F80000E26900F4800191421CD1226A85
:100E900000F03F01914217D147F6C071626A0140EC
:100EA000B1EB821F10D1A26A4FF0FF3300F4403142
:100EB00003EB5202B1EB024F06D194F82C1000F074
:100EC0007060B0EB016F01D00120D1E70020CFE7C7
:100ED0000438024000004742800E47420070004044
:100EE0000000FFFF70B5040002D0607F10B106E083
:100EF000012070BD00202077204600F049F8022034
:100F000060772168CA2048622168532048622046E1
:100F100000F0E4FCFF25042618BB206881681B4A0A
:100F2000114081602168886862681043D4E9042315
:100F30001A43104388602168E068086120680169ED
:100F4000228941EA024101612068C16821F08001E3
:100F5000C16020688068800607D4204600F0FEF853
:100F600018B1206845626677C2E72068016C21F4F9
:100F7000802101642068016CA2691143016420682A
:100F8000456201206077002070BD0000BFFF8FFF29
:100F900000680349884202D1024901200860704775
:100FA000002800403C0E47422DE9F0470446007FF0
:100FB0000B4601281FD04FF0010984F81C90022035
:100FC0006077DAB19878D97840EA0145587819788D
:100FD000000240EA413005432168CA204862216886
:100FE00053204862204600F079FC0026FF274FF08E
:100FF000040860BB1AE00220BDE8F0875878C106FB
:1010000003D500F0EF000A305870D87800F05AFC91
:101010000204587800F056FC42EA0022987800F06A
:1010200051FC0243187842EA4035D5E70F480540A5
:10103000206845602068C16821F08001C160206897
:10104000806880060AD4204600F088F830B1206815
:10105000476284F81D8026770120CDE7206847622B
:1010600084F81D9026770020C6E700003FFFFF00B0
:101070002DE9F0470446007F0D46012827D04FF0A8
:10108000010A84F81CA0022060772068002680688E
:101090004FEA4060F2B1002800DBEE70A8782978B2
:1010A00040EA01476878E978000240EA01400743D6
:1010B0002168CA204862216853204862204600F017
:1010C0000DFC4FF0FF084FF00409A0BB16E0022012
:1010D000BDE8F087002800DBEE70287800F0F2FB16
:1010E0000204687800F0EEFB42EA0022A87800F0E3
:1010F000E9FB0243E87842EA0047D9E7164807408F
:10110000206807602068816821F480218160D5E92A
:101110000301084321688A68104388602068C16819
:1011200021F08001C1602068806880060BD42046D1
:1011300000F014F838B12168C1F8248084F81D90BB
:1011400026770120C4E72168C1F8248084F81DA017
:1011500026770020BCE700007F7F7F0070B5044643
:101160000068C16821F0A001C160FFF791FA05464F
:101170004FF47A7607E000BFFFF78AFA401BB042CF
:1011800001D9032070BD2068C0688006F4D5002016
:1011900070BD7047704710B5040003D094F83D004F
:1011A00010B107E0012010BD002084F83C0020466B
:1011B00000F01EF8022084F83D00211D206800F098
:1011C00027FC012084F8460084F83E0084F83F00A4
:1011D00084F8400084F8410084F8420084F8430019
:1011E00084F8440084F8450084F83D00002010BDD8
:1011F0007047000090F83D10012901D00120704790
:10120000022180F83D100168CA6842F00102CA60FC
:1012100000680E4988420ED0B0F1804F0BD00C49C7
:10122000884208D00B49884205D00B49884202D039
:101230000A49884204D1816801F00701062903D0D8
:10124000016841F001010160002070470000014089
:101250000004004000080040000C00400040014035
:10126000704770B50446006801694FF00005C94336
:10127000890715D4C168C943890711D4E91E0161E2
:1012800001202077206880698007204602D0FFF780
:10129000E7FF04E000F098F8204600F096F8257784
:1012A00020680169C943490717D4C168C943490780
:1012B00013D46FF004010161022020772068806957
:1012C00010F4407F204602D0FFF7CAFF04E000F090
:1012D0007BF8204600F079F8257720680169C9433A
:1012E000090716D4C168C943090712D46FF0080171
:1012F0000161042020772068C0698007204602D061
:10130000FFF7AEFF04E000F05FF8204600F05DF864
:10131000257720680169C943C90617D4C168C94344
:10132000C90613D46FF010010161082020772068EE
:10133000C06910F4407F204602D0FFF791FF04E01F
:1013400000F042F8204600F040F825772068016957
:10135000C943C90708D1C168C943C90704D1891E57
:101360000161204600F032F820680169C94309068E
:1013700009D4C168C943090605D46FF08001016131
:101380002046FFF706FF20680169C943490609D4D2
:10139000C168C943490605D46FF040010161204688
:1013A00000F01EF820680169C94389060BD4C168A2
:1013B000C943890607D46FF0200101612046BDE8CA
:1013C0007040FFF7E7BE70BD704770470068034983
:1013D000884201D1FFF762B9704700000008004061
:1013E0007047704770470000F8B5026804461068FF
:1013F000D168536910F00F0F4FF0000553D003F080
:10140000010601F4907737435FD0C20705D0CA05C3
:1014100003D5226C42F001022264420705D5DA07A7
:1014200003D0226C42F002022264820705D5DA075B
:1014300003D0226C42F004022264020707D501F0B7
:101440002002324303D0226C42F008022264226C54
:10145000002A34D0800604D5880602D5204600F044
:1014600053FB20684069216CC0F38010090700D449
:1014700030B3204600F030FB2068416949061BD597
:10148000416921F040014161A06BA8B15949016552
:10149000A06BFEF7F7FF002811D0A06B016D01B023
:1014A000BDE8F040084783060FD58B060DD52046D2
:1014B000BDE8F84000F028BB2046FFF793FFF8BDD9
:1014C0002046FFF78FFF2564F8BD266B2023012EF1
:1014D00053D1C60651D5CE064FD51068506800903E
:1014E000506940062BD5A16B086840680004000CC9
:1014F000EAD0A68D8642E7D9E085C869B0F5807F3D
:1015000018D0D06820F48070D0602068416921F044
:10151000010141612068416921F04001416184F885
:101520003E3025632068C16821F01001C160A06BC6
:10153000FEF761FFA08DE18D401A81B219E0A08D08
:10154000E18D401A81B2E08D0028BDD00029BBD0CA
:10155000D06820F49070D0602068426922F00102C7
:10156000426184F83E3025632068C26822F0100290
:10157000C2602046FFF735FFF8BD05062BD50D06E6
:1015800029D594F83D002128F6D1A068B0F5805FF8
:1015900001D12069B0B1206A411C21622168007824
:1015A0004860E08C401E0004000CE084E4D1206818
:1015B000C16821F08001C1602068C16841F040012C
:1015C000C160F8BD206A0088C0F308005060206A3E
:1015D000801C2062E5E74006F3D54806F1D5D168C6
:1015E000204621F04001D16084F83D3000F0EDF854
:1015F000F8BD0000C91A000870B5040004D094F8C2
:101600003D00002510B106E0012070BD84F83C507B
:10161000204600F023F8242084F83D002068C168AB
:1016200021F40051C160204600F0C6FA206801692B
:1016300021F4904101612068416921F02A01416152
:101640002068C16841F40051C1602564202084F8FD
:101650003D0084F83E00002070BD000010B586B04B
:10166000044614216846FEF75DFE1749206888424B
:1016700028D116480021026842F400320260006856
:1016800000F40030059011481038026842F0010261
:101690000260006800F0010005900C20009002201C
:1016A000CDE9010103200390072004906946084812
:1016B000FEF7FAFE002206212620FFF775F8262005
:1016C000FFF764F806B010BD004400404038024007
:1016D0000000024090F83E30202B0ED159B152B19B
:1016E00090F83C30012B08D0012380F83C300023D7
:1016F000036300F0E7BA0120704702207047000042
:101700004FF4FA7306220249024800F005B80000BF
:101710001C000020A40100202DE9F843044690F8A5
:101720003D001F4616460D4620284CD1C5B1BEB11E
:1017300094F83C00012846D0012084F83C004FF08A
:101740000008C4F84080212084F83D00FEF7A0FF87
:10175000A6848146E684A068B0F5805F03D004E0EB
:101760000120BDE8F883206928B12E465FF000050E
:1017700084F83C800EE00026FAE78021204600F045
:10178000BCFAA0B9AEB116F8010B21684860E08C34
:10179000401EE084E08C4B464FF00002009700288A
:1017A000EBD14FF04001204600F0A7FA30B1032002
:1017B000D7E735F8020BC0F30800E6E7202084F8ED
:1017C0003D000020CDE70220CBE77047FEE7000098
:1017D00070B586B014216846FEF7A4FD16480024B3
:1017E000016841F080010160016801F0800105910C
:1017F000016841F001010160016801F001010591FA
:10180000016841F00801016000680C4E00F008001A
:101810004FF470450590002229463046FEF732FF0E
:1018200001200095CDE90104694630460394FEF796
:101830003BFE06B070BD000030380240000C024094
:1018400010B586B014216846FEF76CFD1B480024D5
:1018500019490594C0E900147F218160FF21C0E986
:10186000031444618461FFF73DFB08B172B6FEE7E3
:101870008DF800408DF801408DF80240039401225C
:1018800069460E480494FFF7F3FB08B172B6FEE711
:1018900001208DF814008DF815008DF81600024611
:1018A0008DF8174005A90548FFF77EFB002801D0F9
:1018B00072B6FEE706B010BD00280040840100208B
:1018C000FEE7FEE7002102E00A38C0B2491C0A2800
:1018D000FAD2090740EA11607047000070B504466B
:1018E0000068C168490614D44FF0FF31C160FEF7AB
:1018F000CFFE05464FF47A7607E000BFFEF7C8FE3C
:10190000401BB04201D9032070BD2068C06840066A
:10191000F4D5002070BD000010B5502080F3118870
:10192000BFF34F8FBFF36F8F01F004F818B1044974
:101930004FF080500860002080F3118810BD000037
:1019400004ED00E030B599B030216846FEF7EAFCBE
:1019500014210CA8FEF7E6FC182111A8FEF7E2FC02
:1019600022480024016841F080510160006800F0C5
:10197000805017901E48016841F4404101600068A2
:10198000102100F4404017900A2000900120CDE97A
:1019900003010225CDE905050820CDE907406420B3
:1019A000CDE9090504200B906846FFF7E5F808B17A
:1019B00072B6FEE70F20CDE90C054FF48050CDE95B
:1019C0000E4003210CA81094FEF7CAFF08B172B6AE
:1019D000FEE74FF400701590119511A8FEF716FF61
:1019E000002801D072B6FEE719B030BD4038024081
:1019F000007000400248016841F4700101607047C6
:101A000088ED00E00148FFF72CBC00003C040020FA
:101A1000F0B502681D4B1E4C9F031E4D1E4E984292
:101A200007D0B84205D0A04203D0A84201D0B042AE
:101A300004D122F0700C4A6842EA0C02984210D09D
:101A4000B8420ED0A0420CD0A8420AD0B04208D072
:101A5000124CA04205D0124CA04202D0114CA04220
:101A600003D122F44074CA6822434C6922F08002F8
:101A7000224302608A68C2620A688262984201D187
:101A80000969016301214161F0BD000000000140CE
:101A90000004004000080040000C004000400140ED
:101AA0000044014000480140012000F0FFF9FBE73D
:101AB000012000F0FBF9FBE7012000F0F7F9FBE75C
:101AC000012000F0F3F9FBE710B5806B0021C18520
:101AD000C184FFF787FC10BD0168CA6822F49072C8
:101AE000CA6001684A6922F001024A61016B01295A
:101AF00004D10168CA6822F01002CA60202180F86F
:101B00003E1000210163704710B5044690F83E0076
:101B1000222801D0022010BDA1684FF480529142CA
:101B200001D1206920B1A06A91421BD049B10AE0DD
:101B30002168A06A4968C1F308010180A06A801C7D
:101B400008E0216971B12168496801F07F010170E5
:101B5000A06A401CA062E08D401E0004000CE085DD
:101B600003D01CE021684968F1E72068C16821F0D2
:101B70002001C1602068C16821F48071C1602068C3
:101B8000416921F001014161202084F83E00206B71
:101B9000012806D02046FFF7B3FD00202063002077
:101BA00010BD2068C16821F01001C160A18D2046E0
:101BB000FFF717FCF1E7000070B504460068016903
:101BC000E26821F44051114301612169A068E26992
:101BD00008436169114308432168CA6849F20C63EC
:101BE0009A430243CA6020684169A26921F44071A6
:101BF0001143416131492068884202D0304988420E
:101C000002D1FEF777FF01E0FEF764FFE2690023EF
:101C1000192164253226B2F5004F626828D0A0FB56
:101C20000101930F9200FEF733FB0146B0FBF5F084
:101C30006FF01802504301EB800006EB0010B0FB80
:101C4000F5F000F0F002B1FBF5F002EB0012B1FB91
:101C5000F5F06FF01803584301EB800006EB00101D
:101C6000B0FBF5F000F00F0021681044886070BDF3
:101C7000A0FB010192185B41FEF70AFB0146B0FB95
:101C8000F5F00201B1FBF5F06FF01803584301EBDA
:101C9000800006EBC000B0FBF5F000F0F80002EBAE
:101CA0004002B1FBF5F0584301EB800006EBC000A9
:101CB000B0FBF5F000F00700D6E70000001001408F
:101CC0000014014081628285C285002101642222C4
:101CD00080F83E2080F83C100168CA6842F48072A7
:101CE000CA6001684A6942F001024A610068C1683D
:101CF00041F02001C160002070472DE9F041984675
:101D000017460E460446069D1DE0681C1BD02DB1EB
:101D1000FEF7BEFCA0EB0800A84214D92068C168F9
:101D200021F4D071C1602068416921F00101416155
:101D3000202084F83D0084F83E00002084F83C0018
:101D40000320BDE8F0812068006836EA000004D076
:101D50000020B842D9D00020F3E70120F9E70000C5
:101D60000148FFF741BB0000A4010020FEE709077E
:101D7000090E002804DB00F1E02080F80014704711
:101D800000F00F0000F1E02080F8141D704702E021
:101D900008C8121F08C1002AFAD1704770470020F6
:101DA00001E001C1121F002AFBD17047A4B0FEF769
:101DB0007DFCFFF7C7FDFFF70BFDFFF741FD354841
:101DC00033490C2201604FF4E13141600021816010
:101DD000C160C0E904128161C161FFF70DFC08B167
:101DE00072B6FEE74FF4FA73E9222B492948FFF750
:101DF00093FC294C0122223C2648A169FFF76AFC8A
:101E0000264D0DF1700C95E80F008CE80F000021B5
:101E10001CA800F057F81035206195E80F000DF16F
:101E2000800C8CE80F00002120A800F04BF86061C6
:101E30001C2205F110016846FEF75BFA0021684696
:101E400000F053F820601C2205F12C0107A8FEF7D2
:101E500050FA002107A800F048F860601C2205F144
:101E600048010EA8FEF745FA00210EA800F03DF843
:101E7000A0601C2205F1640115A8FEF73AFA0021C2
:101E800015A800F032F8E06000F017F8FEE7000057
:101E900000440040A401002022000020382B00084C
:101EA00001460020842900D0C81C704710B500B935
:101EB000012000F043FB002010BD10B500F064FBD2
:101EC000002010BD38B5D0E9011204683AB1C368EA
:101ED0002BB100200090204600F05DFC38BD20466C
:101EE000BDE83840002200F035BC7FB50D46044601
:101EF0004169B0F9080081B1A16971B1FFF7D0FF64
:101F0000D4E905128DE80700D4E900102B462269B8
:101F100000F0E5FC039004B070BDFFF7C1FF03A91A
:101F2000CDE90001208A2B4682B2D4E9001000F0EE
:101F3000A9FC012801D00020EDE70398EBE70000A1
:101F40002DE9F041184C0F460546E6682068001D53
:101F500000F02CFA38B9206890F82C100120884045
:101F6000216981432161681C07D137B12168BDE82F
:101F7000F0410E48091D00F05DBA20683544B542B5
:101F80004560216805D2A06BBDE8F041091D00F055
:101F900039BA606B091D00F035FAA06A854200D29B
:101FA000A562BDE8F08100001C0100206005002052
:101FB0002DE9F041054600F049FA2E4CA068401C7E
:101FC000A06020682C4F10B1606940B32DE02560FF
:101FD000A068012829D1002606EB860007EB8000C7
:101FE00000F002FA761C072EF6D323488C3000F05E
:101FF000FBF92148A03000F0F7F91F48B43000F099
:10200000F3F91D48C83000F0EFF91B48DC3000F050
:10201000EBF919488C3060631430A06305E0206848
:10202000E96AC06A884200D82560606A401C606224
:10203000E96A0120226988401043206101EB810098
:1020400007EB8000291D00F0F5F900F01FFA606928
:1020500000280CD02068E96AC06A884207D2074984
:102060004FF080500860BFF34F8FBFF36F8FBDE814
:10207000F08100001C0100208404002004ED00E039
:1020800010B5044690F8510058B101280CD0022830
:102090000FD0502080F31188BFF34F8FBFF36F8FA5
:1020A000FEE7206B00F006FA2046BDE8104000F085
:1020B00001BA10BD10484FF47051420706D0C01D40
:1020C0000D4920F00700411AC1F570510B4A002359
:1020D0000144C2E900030839183A21F007011160F0
:1020E0004B600B600B1AC0E9001393604FF0004087
:1020F000536050617047000074050020700100209B
:10210000144E154CA6F1C8074FF08058DFF84C90DC
:1021100012E000BF00F09AF9F068C568281D00F0D1
:1021200045F9A068401EA0606068401E606000F035
:10213000ADF92846FFF7A4FF60680028EAD13868A7
:102140000128F9D9C9F80080BFF34F8FBFF36F8F13
:10215000F2E700004C0500201C01002004ED00E027
:102160000346009829B10260C0E90F31012100F057
:1021700045BB0060F8E72DE9F0479A46DDE90984A0
:1021800081466FF00303206B03EB82021044089E2C
:1021900020F00707780707D0502080F31188BFF39D
:1021A0004F8FBFF36F8FFEE7002561B1002023182A
:1021B0000A5C83F834200A5C12B1401C1028F6D364
:1021C00084F8435001E084F83450072E00D30626EB
:1021D000E662C4E91165201D00F011F904F1180050
:1021E00000F00DF92461C6F107006462A061E564A6
:1021F00084F8505052464946384600F0C1F82060F5
:10220000B8F1000F01D0C8F80040BDE8F087000029
:1022100030B5114900E011460A688242FBD34B6891
:102220005C18844203D140681844486008464368FB
:102230001C18944209D1084C183C2468A24209D0C9
:1022400052681A4442600A6812680260814200D0F3
:10225000086030BD0460F9E7700100200648416B5A
:10226000096829B1416BC968C968496881627047CA
:102270004FF0FF31FAE700001C01002008484068D9
:10228000401C4FF0500080F3118804D0BFF34F8FF3
:10229000BFF36F8FFEE7BFF34F8FBFF36F8FFEE784
:1022A000780100202DE9F0410546002700F0A2F951
:1022B000324E306808B9FFF7FDFE706905424ED115
:1022C000C5B3083568070ED005F00700C0F1080057
:1022D0000544680707D0502080F31188BFF34F8F63
:1022E000BFF36F8FFEE72DB37068854237D8234860
:1022F000183001460C6801E020460C466168A9428E
:1023000002D221680029F7D131688C4227D00768B2
:102310002168016060680837411B10290FD96019D6
:10232000420708D0502080F31188BFF34F8FBFF3CE
:102330006F8FFEE713E041606560FFF769FF61683A
:102340007068401A7060B268904200D2B0607069E4
:1023500001430020C4E90001F068401CF06000F077
:1023600089FB780707D0502080F31188BFF34F8F87
:10237000BFF36F8FFEE73846BDE8F08158010020BB
:1023800010B5031F4FF080741C601B1F21F001016A
:102390001960191F044B0B6014390A60091F6FF094
:1023A000020244380A6010BD7D220008D0E90132E3
:1023B00001699A60D0E901235A604A68824201D1DA
:1023C00082684A60002202610868401E086008684E
:1023D00070470000034B036003F154000860802045
:1023E00010607047E801002000F108014FF0FF3253
:1023F000C0E90112C1600161002101607047002144
:102400000161704730B50B685A1C02D000F1080218
:1024100002E0026904E02246546825689D42FAD928
:1024200053684B6099608A60516008610168491C7B
:10243000016030BD42684A6093688B609368596060
:10244000916008610168491C01607047502080F369
:102450001188BFF34F8FBFF36F8F0A494868401C44
:10246000486001280CD10848006810F0FF0F07D021
:10247000502080F31188BFF34F8FBFF36F8FFEE7BB
:10248000704700007801002004ED00E0084948682A
:1024900028B1401E486001D180F311887047502058
:1024A00080F31188BFF34F8FBFF36F8FFEE70000FB
:1024B0007801002070B500282AD0164DA0F108043C
:1024C00060686969084207D1502080F31188BFF322
:1024D0004F8FBFF36F8FFEE722683AB1502080F331
:1024E0001188BFF34F8FBFF36F8FFEE788436060A3
:1024F00000F080F860686968084468602046FFF76B
:1025000087FE2869401C2861BDE8704000F0B2BA1F
:1025100070BD0000580100204FF0E0200021016153
:10252000816105494FF47A720968B1FBF2F1491EE5
:1025300041610721016170471801002010B50200B8
:1025400014D00F48006B38B1502080F31188BFF3CE
:102550004F8FBFF36F8FFEE700F04CF8002110465D
:10256000FFF7EEFC00F086FA002807D105494FF08E
:1025700080500860BFF34F8FBFF36F8F10BD000016
:102580001C01002004ED00E010B586B00024039487
:1025900005AA04A903A80494FFF71CFFDDE90301C1
:1025A0000094CDE9011000230EA11048059A00F017
:1025B00096F90F490028C86211D0502080F3118885
:1025C000BFF34F8FBFF36F8F4FF0FF308862012052
:1025D0004861CC6006B0BDE8104000F041B806B0DC
:1025E00010BD000049444C450000000001210008D6
:1025F0001C0100200248016B491C01637047000068
:102600001C0100201448016B11B10121C161704708
:102610000021C1610169B1FA81F1C1F11F0101EB32
:1026200081020E4951F822306BB101EB820101F1B8
:1026300008034A6852684A609A4201D152684A6067
:10264000D16801607047502080F31188BFF34F8F2D
:10265000BFF36F8FFEE700001C0100208404002000
:102660001CB537480168374A914207D1502080F3A2
:102670001188BFF34F8FBFF36F8FFEE700683149BA
:10268000491E884207D1502080F31188BFF34F8F35
:10269000BFF36F8FFEE72C4908780190FF20087088
:1026A00008788DF800009DF800009DF8002000F0EB
:1026B000F000904207D0502080F31188BFF34F8F75
:1026C000BFF36F8FFEE79DF80000204C00F0500034
:1026D00020700720A06005E09DF8002052008DF8D2
:1026E0000020401E9DF800201206F5D4A0600328AB
:1026F00007D0502080F31188BFF34F8FBFF36F8F47
:10270000FEE74FF44070A060019808700C4820303C
:10271000016841F470010160016841F0704101609D
:10272000FFF7FAFE00206060FDF764FD08480168CD
:1027300041F040410160FDF749FD00201CBD000053
:1027400000ED00E071C20F4100E400E078010020DC
:1027500034EF00E0F8B517460E46050013D005FB30
:1027600006F04830FFF79EFD04000AD0002084F8F0
:10277000460004F148023B46314628460094FFF7E4
:10278000EFFC2046F8BD502080F31188BFF34F8F37
:10279000BFF36F8FFEE738B5049D18B153B1CAB1CE
:1027A00081B120E0502080F31188BFF34F8FBFF339
:1027B0006F8FFEE7502080F31188BFF34F8FBFF378
:1027C0006F8FFEE7502080F31188BFF34F8FBFF368
:1027D0006F8FFEE739B1502080F31188BFF34F8F20
:1027E000BFF36F8FFEE748241C46012384F8463070
:1027F0002B460094FFF7B4FC204638BD70B50D465B
:10280000040025D0FFF722FED4E90F20216802FB47
:102810000011A1600021A163216861600A46D4E92A
:102820000F01401E00FB0121E16021464FF0FF3007
:1028300001F8440F487004F110008DB1FFF7D4FD8A
:1028400004F12400FFF7D0FDFFF720FE012070BD4A
:10285000502080F31188BFF34F8FBFF36F8FFEE7D7
:1028600021690029F0D000F0CBF80028ECD0044911
:102870004FF080500860BFF34F8FBFF36F8FE3E7D7
:1028800004ED00E02DE9FF5F8346DDE90E87994600
:1028900016468A469000FFF705FD05001CD054201F
:1028A000FFF700FD040014D00020256384F85100D8
:1028B000CDE90240CDE900874B46324651465846A5
:1028C000FFF759FC2046FFF773FB012004B0BDE879
:1028D000F09F2846FFF7EEFD4FF0FF30F6E7F0B52A
:1028E00085B0DDE90B640A9DA6B1DCB154270097E1
:1028F0002663022684F85160002604AFCDE9024623
:10290000CDE90057FFF737FC2046FFF751FB04984D
:1029100005B0F0BD502080F31188BFF34F8FBFF397
:102920006F8FFEE7502080F31188BFF34F8FBFF306
:102930006F8FFEE72DE9F0412F4C0026206B28B168
:10294000A069401CA0613046BDE8F081E5686D1CBF
:10295000E56013D1606B006838B1502080F31188B6
:10296000BFF34F8FBFF36F8FFEE7606BA16B6163A7
:10297000A063206A401C2062FFF770FCA06ADFF8A9
:102980007C80854209D3606B0068A0B1606BC06831
:10299000C7687868854211D2A0622068C06A00EBDF
:1029A000800158F82100012800D90126E06900289B
:1029B000C9D00126C7E74FF0FF30EDE7381DFFF71C
:1029C000F5FCB86A18B107F11800FFF7EFFCF96AD7
:1029D0000120226988401043206101EB810108EB4E
:1029E0008100391DFFF726FDF86A2168C96A88420F
:1029F000C9D30126C7E700001C0100208404002081
:102A00002DE9F041C068C468ACB104F11800074674
:102A1000FFF7CCFC154D286B0126A0B139461448B0
:102A2000FFF708FDE06A2968C96A88421CD90120BD
:102A3000EE61BDE8F081502080F31188BFF34F8F25
:102A4000BFF36F8FFEE7201DFFF7B0FCE16A2A6934
:102A500006FA01F01043286101EB81000449B43902
:102A600001EB8000211DDBE70020E2E71C010020D4
:102A7000380500202DE9F0472C4D00242746286B0F
:102A800038B1FFF7E3FC286B401E2863286B40B188
:102A900046E0502080F31188BFF34F8FBFF36F8F54
:102AA000FEE7A968224E0120D1B3A6F1B409804601
:102AB0003068E8B1F068C46804F11800FFF776FCEC
:102AC000201DFFF773FCE06A2A6908FA00F1114340
:102AD000296100EB800109EB8100211DFFF7AAFCB1
:102AE000E06A2968C96A8842E2D3C5F81C80DFE73A
:102AF0000CB1FFF7B3FBAC6944B14646FFF71AFFD0
:102B000000B1EE61641EF9D10020A861E86938B116
:102B10000849012738070860BFF34F8FBFF36F8F55
:102B2000FFF7B4FC3846BDE8F08700001C01002028
:102B30003805002004ED00E00A0000000400000059
:102B400000000000000000000A0000000400000077
:102B50000000000000000000F02B0008B91A000877
:102B60000000000000000000F40100000000000070
:102B700000000000E02B0008A91A00080000000077
:102B800000000000F4010000000000000000000050
:102B9000E82B0008B11A0008000000000000000047
:102BA000F40100000000000000000000F82B000805
:102BB000C11A00080000000000000000F40100003D
:102BC0000000000000000000000000000000000005
:102BD00001020304060708090000000001020304C3
:102BE0005461736B310000005461736B320000005C
:102BF0005461736B330000005461736B3400000048
:102C0000202C000800000020840100009C03000824
:102C1000C42C000884010020F44300009E1D00081D
:102C2000011C1668656C6C6F28100D0A204C454419
:102C30005F4F4E202020090909042B092D016B3E0E
:102C4000311BFB46461C5A321C4F544F47474C45DC
:102C50001F691CBA331C893F491E5A341E180C5276
:102C60004541445F5354415455531F1920491F1A7D
:102C7000351F28125254435F5052494E545F44410D
:102C8000544554494D615A20211A36214809455866
:102C900049545F41505039897A201D30090D0A543A
:102CA00079706520796F7572206F7074696F6E200E
:102CB00068657265203A2032018210036124F41A9B
:042CC000AA01410024
:040000050800019955
:00000001FF
