:020000040800F2
:10000000F84A00206D0200088F19000899180008AE
:100010008D1900081F040008391F000800000000A7
:10002000000000000000000000000000AD0100081A
:10003000310400080000000009020008F51900085A
:10004000870200088702000887020008870200086C
:10005000870200088702000887020008870200085C
:10006000870200088702000887020008870200084C
:10007000870200088702000887020008870200083C
:1000800087020008870200088702000800000000BD
:1000900000000000000000000000000087020008CF
:1000A000870200088702000887020008870200080C
:1000B0008702000887020008E11A0008870200088A
:1000C00087020008870200088702000887020008EC
:1000D00087020008870200082D1F000800000000AA
:1000E000870200088702000887020008000000005D
:1000F000000000000000000000000000870200086F
:10010000000000008702000887020008870200083C
:1001100000000000000000000000000000000000DF
:10012000870200088702000887020008870200088B
:10013000870200080000000000000000000000002E
:10014000000000000000000000000000870200081E
:10015000870200088702000887020008870200085B
:10016000870200088702000800000000000000006D
:10017000000000000000000000000000000000007F
:1001800000000000870200080000000000000000DE
:100190008702000887020008DFF80CD000F002F99F
:1001A0000048004759210008F84A00202C4B1968E4
:1001B0000868B0E8F04F80F30988BFF36F8F4FF005
:1001C000000080F3118870470000000008480068B4
:1001D000006880F308884FF0000080F3148862B64E
:1001E00061B6BFF34F8FBFF36F8F00DF00BF00BF5B
:1001F00008ED00E0DFF80C00016841F470010160D7
:10020000704700BF88ED00E0EFF30980BFF36F8F08
:10021000134B1A681EF0100F08BF20ED108A20E95A
:10022000F04F106009B44FF0500080F31188BFF315
:100230004F8FBFF36F8F02F09DFF4FF0000080F3F0
:10024000118809BC19680868B0E8F04F1EF0100F5B
:1002500008BFB0EC108A80F30988BFF36F8F704736
:10026000E8000020EFF30580704700000648804753
:1002700006480047FEE7FEE7FEE7FEE7FEE7FEE78B
:10028000FEE7FEE7FEE7FEE7D11A00089901000845
:100290002DE9F05F0546002092469B4688460646BB
:1002A000814640241BE0284641464746224600F04E
:1002B00069F853465A46C01A914110D31146184660
:1002C000224600F050F82D1A67EB01084F462246EF
:1002D0000120002100F047F817EB00094E41201ED5
:1002E000A4F10104DFDC484631462A464346BDE816
:1002F000F09F40EA01039B0703D009E008C9121FE1
:1003000008C0042AFAD203E011F8013B00F8013BCF
:10031000521EF9D27047D2B201E000F8012B491EFB
:10032000FBD270470022F6E710B513460A46044692
:100330001946FFF7F0FF204610BD30B50B460146C9
:1003400000202022012409E021FA02F59D4205D374
:1003500003FA02F5491B04FA02F52844151EA2F11E
:100360000102F1DC30BD202A04DB203A00FA02F160
:10037000002070479140C2F1200320FA03F3194393
:1003800090407047202A04DB203A21FA02F0002135
:10039000704721FA02F3D040C2F120029140084395
:1003A00019467047064C074D06E0E06840F001032F
:1003B00094E8070098471034AC42F6D3FFF7F0FEFC
:1003C000C03E0008E03E000870B58C1810F8015BD4
:1003D00015F0070301D110F8013B2A1106D110F8DE
:1003E000012B03E010F8016B01F8016B5B1EF9D1E2
:1003F0002B0705D40023521E0DD401F8013BFAE768
:1004000010F8013BCB1A921C03E013F8015B01F8D2
:10041000015B521EF9D5A142D8D3002070BDFEE782
:100420004FF48051014800F050B90000000C024028
:1004300070472DE9F0410446876D00F053F90646F8
:1004400094F835000025022806D08020606584F8E5
:1004500034500120BDE8F0812068016821F01601C8
:1004600001602068416921F080014161206C08B978
:10047000A06C20B12068016821F0080101602068AB
:10048000016821F0010101600BE000F02BF9801BF5
:10049000052806D92020606504F8345F03206070C9
:1004A000D8E720680068C007EFD194F85C103F20BF
:1004B0008840B86004F8345F012060700020C9E70C
:1004C00090F83510022903D0802141650120704742
:1004D000052180F835100068016821F001010160F4
:1004E000002070472DE9F84FDFF8B4A10022012465
:1004F0000AF1040B03254FF00F090BF1040E00BFA6
:100500000B6804FA02F63340B34272D10F7907F058
:100510000307012F01D0022F16D187684FEA420846
:1005200005FA08FC27EA0C07D1F80CC00CFA08FC05
:100530004CEA070CC0F808C04768B7430E79C6F309
:10054000001696403E4346600E79F643B6070DD03E
:10055000C768560005FA06FC27EA0C07D1F808C060
:100560000CFA06FC4CEA070CC0F80CC00E7906F039
:100570000306022E10D1D60800EB8608D8F82060BA
:1005800057074FEAD76C09FA0CF7BE430F6907FA11
:100590000CF73743C8F8207006684FEA420C05FA9A
:1005A0000CF7BE430F7907F0030707FA0CF7374340
:1005B00007604E68F6006DD53A4E376847F48047BD
:1005C0003760366822F0030706F480460096364E00
:1005D00007EB060CDCF8086897073F0F09FA07F8E5
:1005E00026EA0806DFF8C480404503D14FF0000832
:1005F0001EE04FE0DFF8B880404502D14FF001081F
:1006000016E0DFF8B080404502D14FF002080FE05D
:10061000DFF8A480404502D14FF0030808E0DFF87E
:100620009C80404502D14FF0040801E04FF00708DC
:1006300008FA07F848EA0608CCF80888DAF80060F3
:100640005746D1F804C09E435FEACC3C00D51E4318
:100650003E60DBF800605F46D1F804C09E435FEA6D
:100660008C3C00D51E433E60DEF800607746D1F832
:1006700004C09E435FEACC2C00D51E433E60084F69
:100680000C373E68D1F804C09E435FEA8C2C00D53D
:100690001E433E60521C102AFFF432AFBDE8F88FB3
:1006A000003C01404438024000300140000002405C
:1006B0000004024000080240000C0240001002400A
:1006C0000069084000D001207047426921EA020316
:1006D0000A4043EA0241816170470AB18161704773
:1006E0000904FBE70148806870470000D80000203B
:1006F000024881680278114481607047D800002068
:100700000B4810B5016841F400710160016841F4C3
:1007100080610160016841F480710160032000F094
:100720008DF8002000F006F800F03EF8002010BD23
:10073000003C024010B5014688B000221E2000F0A7
:100740005DF81E2000F04CF813480024016841F0C9
:1007500004010160006805A900F0040006906846E5
:1007600000F0C2F900F0E0F90C494000B0FBF1F1F3
:100770000C480B4A491E026040F2E732C0E90324EC
:10078000C0E9011400F05DFD10B1012008B010BDFA
:10079000044800F085FDF9E74038024040420F0070
:1007A00000080040980800200C4882B0016841F41D
:1007B00080410160006800F4804000900748001FFD
:1007C000016841F0805101600068002200F0805013
:1007D00000900F21901E02B000F010B84438024083
:1007E000002809DB00F01F02012191404009800030
:1007F00000F1E020C0F8001170470000F0B40E4B8B
:100800001B680C46C3F30223C3F10705042D00D96E
:100810000425191D072901D2002300E0DB1E012653
:1008200006FA05F1491E214099409E40761E164069
:100830003143F0BC01F096BB0CED00E0064900F03E
:10084000070208684FF6FF03184040EA0220034AF7
:1008500010430860704700000CED00E00000FA054E
:100860002DE9F843044600684FF00109C1074FF035
:10087000000601D1400729D5DFF82081C8F868605B
:10088000FFF730FF0746464D05E000BFFFF72AFFA0
:10089000C01B022859D828680001F7D4A068217B22
:1008A000800140EA0170616808433D498431086075
:1008B000C8F86890FFF716FF074604E0FFF712FF3D
:1008C000C01B022841D828680001F7D5207880078E
:1008D00052D533484030016841F0805101600068D2
:1008E000304D00F080500090286840F480702860FF
:1008F000FFF7F8FE074604E0FFF7F4FEC01B0228EE
:1009000023D82868C005F7D5254D7035286810F420
:10091000407020D0218A01F4407181421BD02868A8
:10092000214920F44070C1F800900E6028602868CA
:10093000C00710D0FFF7D6FE064641F2883707E021
:10094000FFF7D0FE801BB84202D90320BDE8F88330
:1009500028688007F4D521691148C1F301220830C5
:10096000032A12D0016821F4F81101602868218A55
:10097000C1F30B01084328602078000703D50B4919
:10098000207DC1F8E0010020E0E70268084B22F476
:10099000F81219400A430260E8E7000000004742ED
:1009A0000038024000700040400E474200104742AD
:1009B000FFFCFF0F2DE9F0470E46050065D0DFF87C
:1009C0001481D8F80000F7B200F00700B04207D257
:1009D00088F80070D8F8000000F00700B04254D149
:1009E00028683D4C810712D5400703D5206840F4A4
:1009F000E05020602878000703D5206840F460406C
:100A000020602068A96820F0F00008432060287862
:100A1000C0072DD0304968680839012812D0022853
:100A200013D0032811D00968890700292DDA21681D
:100A300021F0030101432160FFF754FE814641F29A
:100A4000883A0EE009688903EFE709688901ECE755
:100A5000FFF748FEA0EB0901514502D90320BDE88C
:100A6000F0872068696800F00C00B0EB810FEFD1CF
:100A7000D8F80010404601F00701B14207D90770CD
:100A8000006800F00700B04201D00120E7E72878B5
:100A9000400705D52068E96820F4E050084320604D
:100AA0002878000706D52068296920F4604040EACC
:100AB000C100206000F058F82168084AC1F3031112
:100AC000515CC8400649086006480068FFF732FEDE
:100AD0000020C4E7003C024008380240883E00087D
:100AE000E4000020DC0000200F2202600C4A1368A2
:100AF00003F003034360136803F0F003836013689B
:100B000003F4E053C36012684FF4E05303EAD202E7
:100B100002610448006800F00700086070470000A8
:100B200008380240003C0240044805490068096852
:100B3000044AC1F38221515CC8407047E4000020A0
:100B400008380240983E00080448054900680968D2
:100B5000044AC1F34231515CC8407047E4000020B0
:100B600008380240983E0008154810B5006810F09B
:100B70000C02144813D01449042A0FD0082A0ED1AD
:100B80000F4C241F2268236802F03F025B0207D546
:100B90002068C0F38810A0FB010106E0084610BDE4
:100BA0002168C1F38811A1FB00010023FFF770FB4E
:100BB0002168C1F30141491C4900B0FBF1F010BDAF
:100BC000083802400024F40040787D012DE9F84FF8
:100BD00004006ED02078DFF84C93C007A9F104051B
:100BE0004AD009F104000168C1F38101012908D04C
:100BF0000068C0F3810002280AD1D9F80000400241
:100C000006D52868800337D560680028E1D033E036
:100C10006068B0F5803F10D0B0F5A02F286810D0E4
:100C200020F480302860286820F4802028606068E4
:100C3000A8B1FFF757FD06460DE0286840F4803064
:100C4000F4E740F480202860F7E700BFFFF74AFD93
:100C5000801B642873D828688003F7D50CE0FFF761
:100C600041FD064605E000BFFFF73CFD801B642800
:100C7000F0D828688003F7D42078DFF8AC828007AA
:100C80004FF0000A3ED5A748001D016811F00C0F77
:100C900008D00068C0F3810002280BD1D9F8000009
:100CA000400207D42868800716D5E068012800D1E3
:100CB00012E033E1E068B8B10120C8F80000FFF7A6
:100CC00011FD064605E000BFFFF70CFD801B022862
:100CD000C0D828688007F7D52868216920F0F80077
:100CE00040EAC10028600DE0C8F800A0FFF7FAFC58
:100CF000064604E0FFF7F6FC801B02281FD8286890
:100D00008007F7D42078000722D5864F874861698D
:100D1000703771B101210160FFF7E4FC064604E081
:100D2000FFF7E0FC801B022809D838688007F7D558
:100D30000EE0C0F800A0FFF7D5FC064605E082E013
:100D4000FFF7D0FC801B02287DD838688007F7D4D5
:100D50002078400768D5DFF8CCB100270BF13C0BB9
:100D6000DBF80000C0000BD4DBF8001041F080512C
:100D7000CBF80010DBF80000012700F08050009055
:100D80006B4E3068C00510D4306840F4807030601D
:100D9000FFF7A8FC009005E0FFF7A4FC0099401ABB
:100DA000022850D83068C005F6D55E4EA0686C3673
:100DB00001280FD00528306810D020F001003060E5
:100DC000306820F004003060A068B8B1FFF78AFCFA
:100DD00000900FE0306840F00100F4E740F00400BC
:100DE0003060F7E7FFF77EFC0099411A41F2883046
:100DF000814266D830688007F4D50EE0FFF772FCB8
:100E0000009007E0FFF76EFC0099411A41F288302C
:100E1000814256D830688007F4D42FB1DBF8001037
:100E200021F08051CBF80010A069C8B33D49091DDD
:100E30000968C1F3810102294AD00228504607D02F
:100E4000C8F8600000E03CE0FFF74CFC04463BE0E3
:100E50004746C8F86000FFF745FC064605E000BFBE
:100E6000FFF740FC801B02282BD828688001F7D4AC
:100E7000D4E907010843A16A2E4A490802EB01415F
:100E8000626A41EA8211084394F82C1040EA016139
:100E9000C9F8001001203866FFF724FC044606E07C
:100EA0003EE000BFFFF71EFC001B022809D828689F
:100EB0008001F7D534E000BFFFF714FC001B0228C7
:100EC00002D90320BDE8F88F28688001F4D427E018
:100ED0000128F7D0D9F80000E26900F480019142BE
:100EE0001CD1226A00F03F01914217D147F6C07130
:100EF000626A0140B1EB821F10D1A26A4FF0FF334A
:100F000000F4403103EB5202B1EB024F06D194F8EA
:100F10002C1000F07060B0EB016F01D00120D1E720
:100F20000020CFE70438024000004742800E4742CD
:100F3000007000400000FFFF10B50B460168896A91
:100F4000596001680969C1F30E0199600068016880
:100F50000E480140C1F305401870C1F306245C70CF
:100F600001F07F049C70402404EA1141D97052B909
:100F700000F00EFD1870587800F00AFD587098784F
:100F800000F006FD9870002010BD00007F7F7F00FC
:100F900070B5040002D0607F10B106E0012070BD82
:100FA00000202077204600F049F802206077216871
:100FB000CA204862216853204862204600F0FCFCA9
:100FC000FF25042618BB206881681B4A11408160F8
:100FD0002168886862681043D4E904231A431043E7
:100FE00088602168E068086120680169228941EA17
:100FF000024101612068C16821F08001C160206860
:101000008068800607D4204600F0FEF818B12068FA
:1010100045626677C2E72068016C21F48021016493
:101020002068016CA26911430164206845620120B7
:101030006077002070BD0000BFFF8FFF006803498C
:10104000884202D102490120086070470028004010
:101050003C0E47422DE9F0470446007F0B4601282D
:101060001FD04FF0010984F81C9002206077DAB19C
:101070009878D97840EA014558781978000240EA12
:10108000413005432168CA204862216853204862E4
:10109000204600F091FC0026FF274FF0040860BBBB
:1010A0001AE00220BDE8F0875878C10603D500F0A9
:1010B000EF000A305870D87800F073FC02045878BA
:1010C00000F06FFC42EA0022987800F06AFC0243CC
:1010D000187842EA4035D5E70F480540206845605A
:1010E0002068C16821F08001C160206880688006A6
:1010F0000AD4204600F088F830B12068476284F8AE
:101100001D8026770120CDE72068476284F81D9076
:1011100026770020C6E700003FFFFF002DE9F047DB
:101120000446007F0D46012827D04FF0010A84F8BD
:101130001CA0022060772068002680684FEA40608B
:10114000F2B1002800DBEE70A878297840EA014768
:101150006878E978000240EA014007432168CA2024
:101160004862216853204862204600F025FC4FF079
:10117000FF084FF00409A0BB16E00220BDE8F0878D
:10118000002800DBEE70287800F00BFC0204687881
:1011900000F007FC42EA0022A87800F002FC0243BB
:1011A000E87842EA0047D9E7164807402068076018
:1011B0002068816821F480218160D5E9030108431A
:1011C00021688A68104388602068C16821F0800126
:1011D000C1602068806880060BD4204600F014F8B7
:1011E00038B12168C1F8248084F81D902677012049
:1011F000C4E72168C1F8248084F81DA02677002068
:10120000BCE700007F7F7F0070B504460068C168BE
:1012100021F0A001C160FFF765FA05464FF47A7628
:1012200007E000BFFFF75EFA401BB04201D9032080
:1012300070BD2068C0688006F4D5002070BD70477E
:10124000704710B5040003D094F83D0010B107E0DA
:10125000012010BD002084F83C00204600F01EF85C
:10126000022084F83D00211D206800F03FFC012091
:1012700084F8460084F83E0084F83F0084F840007B
:1012800084F8410084F8420084F8430084F8440064
:1012900084F8450084F83D00002010BD7047000030
:1012A00090F83D10012901D001207047022180F8FB
:1012B0003D100168CA6842F00102CA6000680E4928
:1012C00088420ED0B0F1804F0BD00C49884208D034
:1012D0000B49884205D00B49884202D00A4988420E
:1012E00004D1816801F00701062903D0016841F0AB
:1012F000010101600020704700000140000400402F
:1013000000080040000C004000400140704770B5EC
:101310000446006801694FF00005C943890715D4E8
:10132000C168C943890711D4E91E016101202077F2
:10133000206880698007204602D0FFF7E7FF04E0BD
:1013400000F098F8204600F096F8257720680169AB
:10135000C943490717D4C168C943490713D46FF07B
:1013600004010161022020772068806910F4407F29
:10137000204602D0FFF7CAFF04E000F07BF82046C9
:1013800000F079F8257720680169C943090716D468
:10139000C168C943090712D46FF008010161042034
:1013A00020772068C0698007204602D0FFF7AEFF93
:1013B00004E000F05FF8204600F05DF82577206833
:1013C0000169C943C90617D4C168C943C90613D402
:1013D0006FF010010161082020772068C06910F4C7
:1013E000407F204602D0FFF791FF04E000F042F872
:1013F000204600F040F8257720680169C943C907F5
:1014000008D1C168C943C90704D1891E01612046BA
:1014100000F032F820680169C943090609D4C1689F
:10142000C943090605D46FF0800101612046FFF72A
:1014300006FF20680169C943490609D4C168C94348
:10144000490605D46FF040010161204600F01EF806
:1014500020680169C94389060BD4C168C94389065C
:1014600007D46FF0200101612046BDE87040FFF70E
:10147000E7BE70BD7047704700680349884201D1DC
:10148000FFF736B97047000000080040704770470A
:1014900070470000F8B5026804461068D1685369C7
:1014A00010F00F0F4FF0000553D003F0010601F4C8
:1014B000907737435FD0C20705D0CA0503D5226CA9
:1014C00042F001022264420705D5DA0703D0226CFC
:1014D00042F002022264820705D5DA0703D0226CAB
:1014E00042F004022264020707D501F020023243D1
:1014F00003D0226C42F008022264226C002A34D00D
:10150000800604D5880602D5204600F0E3FB20685B
:101510004069216CC0F38010090700D430B3204625
:1015200000F0C0FB2068416949061BD5416921F0E4
:1015300040014161A06BA8B159490165A06BFEF75C
:10154000BFFF002811D0A06B016D01B0BDE8F040D5
:10155000084783060FD58B060DD52046BDE8F84019
:1015600000F0B8BB2046FFF793FFF8BD2046FFF719
:101570008FFF2564F8BD266B2023012E53D1C606AC
:1015800051D5CE064FD5106850680090506940067E
:101590002BD5A16B086840680004000CEAD0A68D2A
:1015A0008642E7D9E085C869B0F5807F18D0D06859
:1015B00020F48070D0602068416921F00101416110
:1015C0002068416921F04001416184F83E30256383
:1015D0002068C16821F01001C160A06BFEF729FFEF
:1015E000A08DE18D401A81B219E0A08DE18D401AE5
:1015F00081B2E08D0028BDD00029BBD0D06820F496
:101600009070D0602068426922F00102426184F843
:101610003E3025632068C26822F01002C260204676
:10162000FFF735FFF8BD05062BD50D0629D594F833
:101630003D002128F6D1A068B0F5805F01D1206976
:10164000B0B1206A411C2162216800784860E08CBA
:10165000401E0004000CE084E4D12068C16821F041
:101660008001C1602068C16841F04001C160F8BDDF
:10167000206A0088C0F308005060206A801C206245
:10168000E5E74006F3D54806F1D5D168204621F0BC
:101690004001D16084F83D3000F0FDF8F8BD000055
:1016A000951C000870B5040004D094F83D00002596
:1016B00010B106E0012070BD84F83C50204600F0D7
:1016C00023F8242084F83D002068C16821F40051EB
:1016D000C160204600F056FB2068016921F490416A
:1016E00001612068416921F02A0141612068C168D7
:1016F00041F40051C1602564202084F83D0084F845
:101700003E00002070BD000010B586B004461421D4
:101710006846FEF707FE17492068884228D1164818
:101720000021026842F400320260006800F40030D8
:10173000059011481038026842F00102026000680A
:1017400000F0010005900C2000900220CDE901017D
:10175000032003900720049069460848FEF7C2FE64
:10176000002206212620FFF749F82620FFF738F847
:1017700006B010BD00440040403802400000024066
:101780007CB51448002101910068144C124A01AD47
:101790002378D054217000950B460A46E06802F089
:1017A00067F8002300951A461946A06802F060F811
:1017B00009480122611C583800F06AFB0198002892
:1017C00007D007494FF080500860BFF34F8FBFF339
:1017D0006F8F7CBD04440040DC010020000000202D
:1017E00004ED00E02DE9F843044690F83D001F4663
:1017F00016460D4620284CD1C5B1BEB194F83C0028
:10180000012846D0012084F83C004FF00008C4F8BD
:101810004080212084F83D00FEF764FFA6848146C5
:10182000E684A068B0F5805F03D004E00120BDE845
:10183000F883206928B12E465FF0000584F83C80CB
:101840000EE00026FAE78021204600F03CFBA0B91C
:10185000AEB116F8010B21684860E08C401EE084B0
:10186000E08C4B464FF0000200970028EBD14FF080
:101870004001204600F027FB30B10320D7E735F8C0
:10188000020BC0F30800E6E7202084F83D000020AA
:10189000CDE70220CBE77047FEE7000070B586B0C9
:1018A00014216846FEF73EFD16480024016841F009
:1018B00080010160016801F080010591016841F03B
:1018C00001010160016801F001010591016841F029
:1018D0000801016000680C4E00F008004FF47045EC
:1018E0000590002229463046FEF7F7FE01200095BC
:1018F000CDE90104694630460394FEF7F3FD06B0D6
:1019000070BD000030380240000C024010B586B0B7
:1019100014216846FEF706FD1B480024194905946A
:10192000C0E900147F218160FF21C0E903144461F4
:101930008461FFF72DFB08B172B6FEE78DF8004019
:101940008DF801408DF802400394012269460E484B
:101950000494FFF7E3FB08B172B6FEE701208DF8AF
:1019600014008DF815008DF8160002468DF817400A
:1019700005A90548FFF76EFB002801D072B6FEE707
:1019800006B010BD0028004064010020FEE7FEE71D
:10199000010901EB810100F00F0000EB4100C0B232
:1019A0007047002102E00A38C0B2491C0A28FAD266
:1019B000090740EA1160704770B504460068C168C5
:1019C000490614D44FF0FF31C160FEF78BFE054687
:1019D0004FF47A7607E000BFFEF784FE401BB0426A
:1019E00001D9032070BD2068C0684006F4D50020EE
:1019F00070BD000010B5502080F31188BFF34F8FE9
:101A0000BFF36F8F01F0CAFF18B104494FF0805047
:101A10000860002080F3118810BD000004ED00E094
:101A200030B599B030216846FEF77CFC14210CA833
:101A3000FEF778FC182111A8FEF774FC2248002458
:101A4000016841F080510160006800F080501790FB
:101A50001E48016841F4404101600068102100F413
:101A6000404017900A2000900120CDE90301022593
:101A7000CDE905050820CDE907406420CDE9090539
:101A800004200B906846FFF7A1F808B172B6FEE794
:101A90000F20CDE90C054FF48050CDE90E40032115
:101AA0000CA81094FEF786FF08B172B6FEE74FF45B
:101AB00000701590119511A8FEF7D2FE002801D0F4
:101AC00072B6FEE719B030BD4038024000700040E9
:101AD0000248016841F470010160704788ED00E040
:101AE0000148FFF714BC000098080020F0B5026818
:101AF0001D4B1E4C9F031E4D1E4E984207D0B842F0
:101B000005D0A04203D0A84201D0B04204D122F0B7
:101B1000700C4A6842EA0C02984210D0B8420ED0CB
:101B2000A0420CD0A8420AD0B04208D0124CA04229
:101B300005D0124CA04202D0114CA04203D122F495
:101B40004074CA6822434C6922F08002224302603A
:101B50008A68C2620A688262984201D10969016397
:101B600001214161F0BD000000000140000400407F
:101B700000080040000C00400040014000440140CB
:101B80000048014008B509484FF0FF34A0F1200596
:101B90000090002322466946E86901F02BFC0022F0
:101BA00023461146104601F05FFFF2E720000020B7
:101BB00008B5104E104F4FF0FF3500222B4611464E
:101BC000104601F051FF0B2001F040F8009001F0A9
:101BD0006BF934780B20303C01F038F80090047039
:101BE00001F082F900232A466946786901F002FC77
:101BF000E3E70000DC01002000000020184D8EB05B
:101C00004FF0FF3422460DA9686901F003FD0D98DD
:101C10000078012810D0022811D0032812D00428FF
:101C200013D0052814D00628684615D000F00CFC07
:101C30000D9801F06DF9E5E700F030FBF8E700F0F2
:101C40000FFBF5E700F064FAF2E700F07FFAEFE748
:101C5000684601F07FF8EBE701F0A0F8E8E7000044
:101C60000000002008B50020084E441E4FF4FA750D
:101C7000009022466946F06901F0CCFC2B46B52263
:101C800003480099FFF7AEFDF3E7000000000020D5
:101C90008401002010B5806B0021C185C184FFF74D
:101CA000F7FB10BD0168CA6822F49072CA6001682F
:101CB0004A6922F001024A61016B012904D10168DD
:101CC000CA6822F01002CA60202180F83E1000216C
:101CD0000163704710B5044690F83E00222801D0F9
:101CE000022010BDA1684FF48052914201D12069B9
:101CF00020B1A06A91421BD049B10AE02168A06AD4
:101D00004968C1F308010180A06A801C08E02169CC
:101D100071B12168496801F07F010170A06A401C1F
:101D2000A062E08D401E0004000CE08503D01CE0A2
:101D300021684968F1E72068C16821F02001C1608D
:101D40002068C16821F48071C1602068416921F078
:101D500001014161202084F83E00206B012806D05B
:101D60002046FFF70DFD00202063002010BD2068F5
:101D7000C16821F01001C160A18D2046FFF787FBEB
:101D8000F1E7000070B5044600680169E26821F4DB
:101D90004051114301612169A068E269084361690A
:101DA000114308432168CA6849F20C639A4302430D
:101DB000CA6020684169A26921F440711143416100
:101DC00031492068884202D03049884202D1FEF76A
:101DD000BBFE01E0FEF7A8FEE2690023192164259D
:101DE0003226B2F5004F626828D0A0FB0101930FA4
:101DF0009200FEF74DFA0146B0FBF5F06FF01802C5
:101E0000504301EB800006EB0010B0FBF5F000F052
:101E1000F002B1FBF5F002EB0012B1FBF5F06FF050
:101E20001803584301EB800006EB0010B0FBF5F0FF
:101E300000F00F0021681044886070BDA0FB010114
:101E400092185B41FEF724FA0146B0FBF5F002015F
:101E5000B1FBF5F06FF01803584301EB800006EB7F
:101E6000C000B0FBF5F000F0F80002EB4002B1FB5F
:101E7000F5F0584301EB800006EBC000B0FBF5F035
:101E800000F00700D6E700000010014000140140F8
:101E900081628285C28500210164222280F83E2071
:101EA00080F83C100168CA6842F48072CA60016818
:101EB0004A6942F001024A610068C16841F02001AC
:101EC000C160002070472DE9F041984617460E4644
:101ED0000446069D1DE0681C1BD02DB1FEF702FCD8
:101EE000A0EB0800A84214D92068C16821F4D07181
:101EF000C1602068416921F001014161202084F81E
:101F00003D0084F83E00002084F83C000320BDE83A
:101F1000F0812068006836EA000004D00020B84252
:101F2000D9D00020F3E70120F9E700000148FFF7CE
:101F3000B1BA000084010020FEE700000FB4084B96
:101F400010B504A902AA039800F02CF8044602A9CF
:101F5000002000F0D1F8204610BC5DF814FB000012
:101F6000F92000080907090E002804DB00F1E02031
:101F700080F80014704700F00F0000F1E02080F8B6
:101F8000141D704702E008C8121F08C1002AFAD1C8
:101F900070477047002001E001C1121F002AFBD1E9
:101FA000704700002DE9FF4F89B09B46044600258D
:101FB00006E025280BD05A460B999047641C6D1CEF
:101FC00020780028F5D10DB02846BDE8F08F002715
:101FD000B8460122474900E0074314F8013F203B7F
:101FE00002FA03F00842F7D120782E2819D114F80C
:101FF000010F47F004072A280ED06FF02F02207837
:10200000A0F1300109290CD808EB880102EB41014D
:1020100000EB0108641CF2E70A98641C50F8048B7A
:102020000A9020780028CED0642808D0692806D0ED
:1020300075281ED05A460B9990476D1C58E00A9996
:102040004FF00A0901C90A91002802DA40422D2105
:1020500002E0390504D52B218DF82010012103E081
:10206000F90704D02021F7E78A4608AE0DE00021E9
:10207000FAE70A994FF00A0901C90A91F7E74946B8
:10208000FEF75BF9303106F8011D0028F7D1ADEB02
:10209000060000F12009780701D44FF00108C84577
:1020A00002DDA8EB090000E000208046002706E0E2
:1020B00008A85A46C05D0B9990476D1C7F1C574578
:1020C000F6DB04E030205A460B9990476D1CB8F1BE
:1020D0000001A8F10108F5DC05E016F8010B5A46ED
:1020E0000B9990476D1CB9F10001A9F10109F4DCCD
:1020F000641C65E7092801000A68531C0B60107016
:102100007047EFF30580002800D0012070470000E1
:102110007CB50C4C4FF4FA75A06920B12946BDE896
:102120007C4000F037B908490022D1E90001CDE92F
:1021300000010121684600F00DF92946A06100F078
:1021400029F97CBD00000020E83D000801488069B5
:1021500000F04EB900000020A6B0FEF7D1FAFFF75C
:102160005FFCFFF79BFBFFF7D1FB374835490C229B
:1021700001604FF4E131416000218160C160C0E93C
:1021800004128161C161FFF78DFA08B172B6FEE7F2
:1021900001222E492C48FFF77BFE2D4D0022D5E968
:1021A0000201CDE92401012124A800F0D3F8274C35
:1021B0001035641E0DF1700CA06195E80F008CE8DD
:1021C0000F0000211CA8103D00F087F82035606149
:1021D00095E80F000DF1800C8CE80F00002120A87D
:1021E00000F07BF8E0611C2205F110016846FEF763
:1021F00080F80021684600F083F860601C2205F139
:102200002C0107A8FEF775F8002107A800F078F860
:10221000A0601C2205F148010EA8FEF76AF8002113
:102220000EA800F06DF8E0601C2205F1640115A80D
:10223000FEF75FF8002115A800F062F8206100F0B9
:1022400047F8FEE700440040840100200100002020
:10225000E83D000801460020842900D0C81C7047D2
:1022600010B50D4C00224FF480512046FEF735FA90
:1022700000224FF400512046FEF72FFA00224FF4BF
:1022800080412046FEF729FA2046BDE81040002292
:102290004FF40041FEF721BA000C024010B50B4C80
:1022A000012211032046FEF718FA012251032046AD
:1022B000FEF713FA012291032046FEF70EFA20469C
:1022C0000122BDE81040D103FEF707BA000C02401E
:1022D00010B500F003FF002010BD38B5D0E90112A1
:1022E00004683AB1C3682BB100200090204601F089
:1022F0000AF838BD2046BDE83840002200F0E2BFB1
:102300007FB50D4604464169B0F9080081B1A16965
:1023100071B1FFF79FFFD4E905128DE80700D4E9FA
:1023200000102B46226901F078FA039004B070BDCA
:10233000FFF790FF03A9CDE90001208A2B4682B266
:10234000D4E9001001F03CFA012801D00020EDE7AB
:102350000398EBE71CB511C86CB1CDE90004012965
:1023600007D0002013460246012109A001F0C4FC59
:102370001CBD0120F6E70090012907D0002013467C
:102380000246012102A001F09DFC1CBD0120F6E7E0
:10239000000000002DE9FC41002507462E4601956E
:1023A0000C0000D10124FFF7ACFE009690B101AB08
:1023B00022460921384601F0E7FC012812D1019894
:1023C00088B10A494FF080500860BFF34F8FBFF3C8
:1023D0006F8F08E0002322460421384601F0D4FC28
:1023E000012800D0FF252846BDE8FC8104ED00E06F
:1023F0007CB5002506462C460195FFF782FE009429
:10240000A0B101AB00220821304601F0BDFC01283B
:1024100001D0FF207CBD019888B10A494FF080505F
:102420000860BFF34F8FBFF36F8F08E000231A4699
:102430000321304601F0A8FC012800D0FF252846E2
:102440007CBD000004ED00E001B506A10098FFF797
:1024500075FD0C4800235A1E6946C06900F0CAFF8A
:1024600008BD00000D0A496E76616C696420636FD7
:102470006D6D616E642072656365697665640D0AD1
:1024800000000000000000202DE9F041184C0F462C
:102490000546E6682068001D00F0AAFC38B92068EF
:1024A00090F82C1001208840216981432161681C2B
:1024B00007D137B12168BDE8F0410E48091D00F091
:1024C000E7BC20683544B5424560216805D2A06B61
:1024D000BDE8F041091D00F0C3BC606B091D00F0B0
:1024E000BFFCA06A854200D2A562BDE8F081000071
:1024F000E8000020FC0900202DE9F041054600F02D
:10250000D3FC2E4CA068401CA06020682C4F10B15A
:10251000606940B32DE02560A068012829D100261C
:1025200006EB860007EB800000F08CFC761C072E83
:10253000F6D323488C3000F085FC2148A03000F011
:1025400081FC1F48B43000F07DFC1D48C83000F00D
:1025500079FC1B48DC3000F075FC19488C30606356
:102560001430A06305E02068E96AC06A884200D898
:102570002560606A401C6062E96A01202269884027
:102580001043206101EB810007EB8000291D00F062
:102590007FFC00F0A9FC606900280CD02068E96A83
:1025A000C06A884207D207494FF080500860BFF3E5
:1025B0004F8FBFF36F8FBDE8F0810000E80000206F
:1025C0002009002004ED00E038B500F06DFC104C4F
:1025D0002068C8B90F4800F035FC0E48143000F0F0
:1025E00031FC0C48E060143020610A4B0020C03BF5
:1025F000009003F148020C210A2000F084FE2060C4
:1026000010B105A100F0F2FCBDE8384000F06CBC50
:1026100024010020D00A0020546D725100000000F7
:1026200030B4026C0B46002A0BD0C1681144C16063
:102630008468A14201D30168C16030BC1846FDF72F
:1026400058BE30BC70472DE9F041856B17460446F3
:102650000026026C82B1C7B1E068FDF74AFEE1686E
:10266000206C091AE1602268914202D2A168081A1E
:10267000E060022F16D017E02068A8B9A06801F02A
:1026800039FA06460020A0600EE06068FDF731FED2
:10269000216C606808446060A168884204D32068A7
:1026A000606001E005B16D1E6D1CA5633046BDE89C
:1026B000F08110B5044690F8510058B101280CD0B3
:1026C00002280FD0502080F31188BFF34F8FBFF343
:1026D0006F8FFEE7206B00F01BFC2046BDE810402A
:1026E00000F016BC10BD000010484FF470514207B6
:1026F00006D0C01D0D4920F00700411AC1F57051E8
:102700000B4A00230144C2E900030839183A21F0BA
:10271000070111604B600B600B1AC0E90013936056
:102720004FF000405360506170470000F80A0020ED
:1027300050010020144E154CA6F1C8074FF08058E8
:10274000DFF84C9012E000BF00F0AEFBF068C56807
:10275000281D00F04DFBA068401EA0606068401E70
:10276000606000F0C1FB2846FFF7A3FF6068002807
:10277000EAD138680128F9D9C9F80080BFF34F8F32
:10278000BFF36F8FF2E70000E8090020E8000020A7
:1027900004ED00E00346009829B10260C0E90F3162
:1027A000012100F0E3BD0060F8E72DE9F0479A460B
:1027B000DDE9098481466FF00303206B03EB82029D
:1027C0001044089E20F00707780707D0502080F3B8
:1027D0001188BFF34F8FBFF36F8FFEE7002561B104
:1027E000002023180A5C83F834200A5C12B1401CD4
:1027F0001028F6D384F8435001E084F83450072EB3
:1028000000D30626E662C4E91165201D00F025FB11
:1028100004F1180000F021FB2461C6F10700646296
:10282000A061E56484F8505052464946384600F0AD
:102830007BFA2060B8F1000F01D0C8F80040BDE875
:10284000F0872DE9F0471E46DDE9089417460D0094
:10285000804615D0002C11D0FFF7B6FE04F1180108
:10286000C4F8008081E86002201D00F0F6FA002F15
:1028700004D014F8240F40F004002070BDE8F08765
:10288000502080F31188BFF34F8FBFF36F8FFEE7A7
:1028900030B5114900E011460A688242FBD34B680B
:1028A0005C18844203D14068184448600846436875
:1028B0001C18944209D1084C183C2468A24209D043
:1028C00052681A4442600A6812680260814200D06D
:1028D000086030BD0460F9E75001002070B50024A5
:1028E00041600B4D0061914206D8D11A8269914234
:1028F00006D2011D286907E09A4203D2994201D30A
:10290000012403E0011DE86800F0AAFA204670BD2A
:102910002401002010B5044600F0C6FAA06B28B1CF
:102920005FF0000400F0E0FA204610BD0124F9E752
:1029300030B587B0394D67E00498002864DB069C09
:10294000606910B1201D00F053FA03A800F0D8F818
:10295000024604980A2857D2DFE800F00505052D45
:10296000334A05052D3394F8240040F0010084F823
:1029700024000599A069059B01442046FFF7AEFF9E
:1029800068B3216A2046884794F8240040073BD565
:10299000002000900598A16900234218194620469E
:1029A00001F0F2F9D8B9502080F31188BFF34F8FAE
:1029B000BFF36F8FFEE714F8240F20F001002070A2
:1029C00022E094F8240040F0010084F824000598E7
:1029D000A06128B1811813462046FFF77FFF13E05E
:1029E000502080F31188BFF34F8FBFF36F8FFEE746
:1029F00094F82400810703D4204600F089FA03E00C
:102A000020F0010084F82400002204A9286800F0C6
:102A100001FE002890D107B030BD00002401002045
:102A20002DE9FC410F46054600F09CFB01A800F093
:102A300067F80446019818B101F0E2F8BDE8FC819E
:102A4000254EAFB130690068D0B30027291B3A4644
:102A5000306800F0DFFA01F0D3F80028EED11F490A
:102A60004FF080500860BFF34F8FBFF36F8FE5E7E3
:102A7000A542EBD801F0C4F8F0682746C068C468E6
:102A8000201D00F0B5F994F82400410719D5A0697C
:102A90002B4641193A462046FFF720FFA8B10020F7
:102AA0000346014600902A46204601F06DF960B9C0
:102AB000502080F31188BFF34F8FBFF36F8FFEE775
:102AC00007E020F0010084F82400216A20468847AE
:102AD000B4E70127BAE700002401002004ED00E07C
:102AE0000648416B096829B1416BC968C9684968E2
:102AF000816270474FF0FF31FAE70000E8000020E4
:102B000070B5054600F044FF064E0446B0688442A6
:102B100003D200F009F8012000E0002028602046E0
:102B2000B46070BD24010020F8B5194D20E0C068E4
:102B3000C4680668201D00F05BF9216A20468847BA
:102B400094F82400400713D5A0693044B04206D958
:102B500024616060211DE86800F082F908E000202F
:102B60000346014600903246204601F00DF938B187
:102B7000E86801680029DAD12969C5E90310F8BDC0
:102B8000502080F31188BFF34F8FBFF36F8FFEE7A4
:102B90002401002008484068401C4FF0500080F39A
:102BA000118804D0BFF34F8FBFF36F8FFEE7BFF3E1
:102BB0004F8FBFF36F8FFEE758010020074CE0688E
:102BC000016841B1C0680021D0F80000FFF728FF7C
:102BD000FFF7AEFEF3E701210020F7E72401002014
:102BE0002DE9F041044600F05FF994F9455004F1F5
:102BF000240609E0606A48B1304600F0C7FF08B11A
:102C000000F032FA6D1E6DB2002DF3DC4FF0FF368E
:102C100084F8456000F068F900F046F994F94450F2
:102C200004F1100709E0206948B1384600F0AEFF12
:102C300008B100F019FA6D1E6DB2002DF3DC84F8B6
:102C40004460BDE8F04100F04FB900002DE9F041CB
:102C50000546002700F086FA324E306808B9FFF7C3
:102C600043FD706905424ED1C5B3083568070ED0E3
:102C700005F00700C0F108000544680707D05020A0
:102C800080F31188BFF34F8FBFF36F8FFEE72DB333
:102C90007068854237D82348183001460C6801E037
:102CA00020460C466168A94202D221680029F7D16A
:102CB00031688C4227D00768216801606068083756
:102CC000411B10290FD96019420708D0502080F30A
:102CD0001188BFF34F8FBFF36F8FFEE713E04160A2
:102CE0006560FFF7D5FD61687068401A7060B26872
:102CF000904200D2B060706901430020C4E9000135
:102D0000F068401CF06000F07BFF780707D050208F
:102D100080F31188BFF34F8FBFF36F8FFEE7384604
:102D2000BDE8F0813801002010B5031F4FF080741A
:102D30001C601B1F21F001011960191F044B0B605F
:102D400014390A60091F6FF0020244380A6010BD8E
:102D5000952B000801B54FF400410848FDF7B0FC81
:102D6000024607A10098FFF7E9F80B4800235A1E16
:102D70006946C06900F03EFB08BD0000000C02403F
:102D80000D0A4C6564207374617475732069732037
:102D90003A202564200D0A000000002001B50C49EE
:102DA00082B00122A1F16400FEF7C6F8084809A12B
:102DB00002784378807800900298FFF7BFF80B48BC
:102DC00000235A1E02A9C06900F014FB0EBD0000CA
:102DD000C80100200D0A2054696D65203A200A259B
:102DE000643A25643A2564200D0A000000000020A2
:102DF000D0E9013201699A60D0E901235A604A683A
:102E0000824201D182684A60002202610868401E45
:102E10000860086870470000034B036003F154002A
:102E20000860802010607047F0010020044B0360B0
:102E300003F1540008604FF4807010607047000088
:102E40004404002000F108014FF0FF32C0E90112F4
:102E5000C16001610021016070470021016170477C
:102E600030B50B685A1C02D000F1080202E002697A
:102E700004E02246546825689D42FAD953684B60A5
:102E800099608A60516008610168491C016030BD29
:102E900042684A6093688B609368596091600861EA
:102EA0000168491C01607047502080F31188BFF30E
:102EB0004F8FBFF36F8F0A494868401C4860012854
:102EC0000CD10848006810F0FF0F07D0502080F3A5
:102ED0001188BFF34F8FBFF36F8FFEE7704700007D
:102EE0005801002004ED00E00849486828B1401E60
:102EF000486001D180F311887047502080F3118819
:102F0000BFF34F8FBFF36F8FFEE700005801002023
:102F100070B500282AD0164DA0F1080460686969D0
:102F2000084207D1502080F31188BFF34F8FBFF3C1
:102F30006F8FFEE722683AB1502080F31188BFF30B
:102F40004F8FBFF36F8FFEE78843606000F00AF990
:102F500060686968084468602046FFF799FC286942
:102F6000401C2861BDE8704000F04ABE70BD000002
:102F7000380100204FF0E020002101618161054906
:102F80004FF47A720968B1FBF2F1491E41610721E1
:102F900001617047E400002010B5FDF763F91149A5
:102FA00010280ED300F1E02090F8F0030A78904248
:102FB00007D2502080F31188BFF34F8FBFF36F8F7C
:102FC000FEE709480068896800F4E060884207D994
:102FD000502080F31188BFF34F8FBFF36F8FFEE750
:102FE00010BD0000580100200CED00E010B5084BAA
:102FF000002200BF53F832401CB1521C082AF9D3FA
:1030000010BD43F8321003EBC201486010BD000050
:10301000E008002070B515460E460446FFF744FF51
:1030200094F944100020491C01D184F8440094F91B
:103030004510491C01D184F84500FFF755FFA06BEE
:1030400028B92A46314604F1240000F02BF8204626
:10305000BDE87040FFF7C4BD02490A6A0260C96852
:1030600041607047E800002001490120C8617047B5
:10307000E800002010B50C4650B109490968183124
:10308000FFF7EEFE2046BDE810400121FFF7FCB936
:10309000502080F31188BFF34F8FBFF36F8FFEE78F
:1030A000E800002070B514460D4668B10A49096869
:1030B0001831FFF7EDFE0CB14FF0FF3521462846E1
:1030C000BDE87040FFF7E0B9502080F31188BFF3EE
:1030D0004F8FBFF36F8FFEE7E800002030B587B059
:1030E0000024039405AA04A903A80494FFF794FEFE
:1030F000DDE903010094CDE90110002315A1174873
:10310000059A00F08AFB164D0028E8621FD000F0F7
:103110000BFE012809D0401C19D1502080F31188E2
:10312000BFF34F8FBFF36F8FFEE7502080F31188FE
:10313000BFF34F8FBFF36F8F4FF0FF30A8620120B6
:103140006861EC6007B0BDE8304000F041B807B0FE
:1031500030BD000049444C45000000003527000800
:10316000E80000200248016B491C01637047000021
:10317000E80000201448016B11B10121C1617047C2
:103180000021C1610169B1FA81F1C1F11F0101EBB7
:1031900081020E4951F822306BB101EB820101F13D
:1031A00008034A6852684A609A4201D152684A60EC
:1031B000D16801607047502080F31188BFF34F8FB2
:1031C000BFF36F8FFEE70000E80000202009002019
:1031D0001CB537480168374A914207D1502080F327
:1031E0001188BFF34F8FBFF36F8FFEE7006831493F
:1031F000491E884207D1502080F31188BFF34F8FBA
:10320000BFF36F8FFEE72C4908780190FF2008700C
:1032100008788DF800009DF800009DF8002000F06F
:10322000F000904207D0502080F31188BFF34F8FF9
:10323000BFF36F8FFEE79DF80000204C00F05000B8
:1032400020700720A06005E09DF8002052008DF856
:103250000020401E9DF800201206F5D4A06003282F
:1032600007D0502080F31188BFF34F8FBFF36F8FCB
:10327000FEE74FF44070A060019808700C482030C1
:10328000016841F470010160016841F07041016022
:10329000FFF770FE00206060FCF7ACFF0848016893
:1032A00041F040410160FCF791FF00201CBD00008F
:1032B00000ED00E071C20F4100E400E05801002081
:1032C00034EF00E0F8B517460E46050013D005FBB5
:1032D00006F04830FFF7BAFC04000AD0002084F85A
:1032E000460004F148023B46314628460094FFF769
:1032F00051FA2046F8BD502080F31188BFF34F8F5C
:10330000BFF36F8FFEE738B5049D18B153B1CAB152
:1033100081B120E0502080F31188BFF34F8FBFF3BD
:103320006F8FFEE7502080F31188BFF34F8FBFF3FC
:103330006F8FFEE7502080F31188BFF34F8FBFF3EC
:103340006F8FFEE739B1502080F31188BFF34F8FA4
:10335000BFF36F8FFEE748241C46012384F84630F4
:103360002B460094FFF716FA204638BD70B50D467F
:10337000040025D0FFF798FDD4E90F20216802FB57
:103380000011A1600021A163216861600A46D4E9AF
:103390000F01401E00FB0121E16021464FF0FF308C
:1033A00001F8440F487004F110008DB1FFF74AFD99
:1033B00004F12400FFF746FDFFF796FD012070BDE4
:1033C000502080F31188BFF34F8FBFF36F8FFEE75C
:1033D00021690029F0D000F0D9FB0028ECD0044985
:1033E0004FF080500860BFF34F8FBFF36F8FE3E75C
:1033F00004ED00E02DE9FF4782B01D468A464FF0FC
:103400000008040003D0BAF1000F08D011E05020EA
:1034100080F31188BFF34F8FBFF36F8FFEE7206CEF
:1034200038B1502080F31188BFF34F8FBFF36F8FF7
:10343000FEE7022D0AD1E06B012807D0502080F36F
:103440001188BFF34F8FBFF36F8FFEE700F092FA42
:103450003F4F4FF000094FF0805648B9049838B1FB
:10346000502080F31188BFF34F8FBFF36F8FFEE7BB
:10347000FFF71AFDA06BE16B884207D3022D05D040
:103480000498D0B1B8F1000F1AD01EE02A46514678
:103490002046FFF7D8F8616A19B104F1240000F062
:1034A00075FB20B13E60BFF34F8FBFF36F8FFFF707
:1034B0001BFD012006B0BDE8F087FFF715FD22E0F7
:1034C0006846FFF7C9FD4FF00108FFF70DFDFFF754
:1034D00049FEFFF7E9FC94F94400401C01D184F84F
:1034E000449094F94500401C01D184F84590FFF7C1
:1034F000FBFC04A9684600F029F930B12046FFF72B
:103500006FFB00F07DFB0020D4E7FFF7CDFCA06B44
:10351000E16B884213D1FFF7E7FC04F11000049936
:10352000FFF7A8FD2046FFF75BFB00F069FB0028D2
:103530009ED13E60BFF34F8FBFF36F8F98E7FFF7C9
:10354000D3FC2046FFF74CFB00F05AFB90E700004D
:1035500004ED00E02DE9F0471F469046894604003F
:1035600003D0B9F1000F08D011E0502080F311888A
:10357000BFF34F8FBFF36F8FFEE7206C38B1502041
:1035800080F31188BFF34F8FBFF36F8FFEE7022FD9
:103590000AD1E06B012807D0502080F31188BFF3D7
:1035A0004F8FBFF36F8FFEE7FFF7F6FC5020EFF36E
:1035B000118680F31188BFF34F8FBFF36F8FA06B1D
:1035C000E16B884206D3022F04D0002086F31188D5
:1035D000BDE8F08794F94550A06B3A46494620462D
:1035E000FFF731F8681C04D06D1C84F845500120A9
:1035F000ECE7606A0028FAD004F1240000F0C6FA73
:103600000028F4D0B8F1000FF1D00121C8F8001063
:10361000EDE700002DE9F747002683B08A46040055
:1036200003D0BAF1000F08D011E0502080F31188C8
:10363000BFF34F8FBFF36F8FFEE7206C38B1502080
:1036400080F31188BFF34F8FBFF36F8FFEE700F059
:1036500091F9DFF8F4804FF000094FF0805748B936
:10366000059838B1502080F31188BFF34F8FBFF316
:103670006F8FFEE7FFF718FCA56BC5B151462046DA
:10368000FEF7CEFF6D1EA563206950B104F1100056
:1036900000F07CFA28B1C8F80070BFF34F8FBFF379
:1036A0006F8FFFF721FC012006B0BDE8F087059879
:1036B00008B11EB106E0FFF717FC27E06846FFF7E8
:1036C000CBFC0126FFF710FCFFF74CFDFFF7ECFBEE
:1036D00094F94400401C01D184F8449094F94500C9
:1036E000401C01D184F84590FFF7FEFB05A9684610
:1036F00000F02CF8002820460AD0FFF771FA00F0FD
:103700007FFA2046FFF706F90028B3D00020CBE768
:10371000FFF700F990B104F124000599FFF7AAFC26
:103720002046FFF75DFA00F06BFA0028A2D1C8F836
:103730000070BFF34F8FBFF36F8F9BE72046FFF7FB
:103740004FFA00F05DFA95E704ED00E02DE9F04155
:103750000C46050011D0C4B1FFF7A6FB174BDA6881
:103760006E682068911B471C17D02F681B6A9F4208
:1037700019D0964217D8012410E0502080F3118808
:10378000BFF34F8FBFF36F8FFEE7502080F3118898
:10379000BFF34F8FBFF36F8FFEE70024FFF7A4FB4B
:1037A0002046BDE8F081884205D9401A20602846AD
:1037B000FFF752FCF1E700202060DCE7E800002082
:1037C0002DE9FF5F8346DDE90E87994616468A4656
:1037D0009000FFF73BFA05001CD05420FFF736FAA3
:1037E000040014D00020256384F85100CDE9024084
:1037F000CDE900874B46324651465846FEF7D5FF85
:103800002046FEF779FE012004B0BDE8F09F28466F
:10381000FFF77EFB4FF0FF30F6E7F0B585B0DDE94E
:103820000B640A9DA6B1DCB15427009726630226DB
:1038300084F85160002604AFCDE90246CDE9005777
:10384000FEF7B3FF2046FEF757FE049805B0F0BD23
:10385000502080F31188BFF34F8FBFF36F8FFEE7C7
:10386000502080F31188BFF34F8FBFF36F8FFEE7B7
:103870002DE9F0471F46DDF8209092460D460400E2
:103880004FF001081AD0FFF787FB5020EFF31186A5
:1038900080F31188BFF34F8FBFF36F8F0FB1E06CD0
:1038A000386094F85000022184F85010BAF1050FE6
:1038B0001AD2DFE80AF0240B0E141200502080F315
:1038C0001188BFF34F8FBFF36F8FFEE7E16C294381
:1038D00001E0E16C491CE16411E0022801D0E564DB
:1038E0000DE04FF000082AE0E16C491C07D05020A1
:1038F00080F31188BFF34F8FBFF36F8FFEE701286E
:103900001DD1A06A38B1502080F31188BFF34F8FCA
:10391000BFF36F8FFEE7154D286B0127A0B104F1AF
:1039200018011348FFF7B4FAE06A2968C96A8842A7
:1039300005D9B9F1000F01D0C9F80070EF6186F325
:1039400011884046BDE8F087201DFFF751FAE16A73
:103950002A6907FA01F01043286101EB810004494C
:10396000B43901EB8000211DDCE70000E8000020F5
:10397000D40900200548416919B1006B18B1002035
:10398000704701207047022070470000E8000020C7
:103990000148C06870470000E80000202DE9F041B0
:1039A0002F4C0026206B28B1A069401CA061304636
:1039B000BDE8F081E5686D1CE56013D1606B0068BF
:1039C00038B1502080F31188BFF34F8FBFF36F8F52
:1039D000FEE7606BA16B6163A063206A401C2062FC
:1039E000FFF77EF8A06ADFF87C80854209D3606B20
:1039F0000068A0B1606BC068C7687868854211D262
:103A0000A0622068C06A00EB800158F821000128FC
:103A100000D90126E0690028C9D00126C7E74FF088
:103A2000FF30EDE7381DFFF7E3F9B86A18B107F189
:103A30001800FFF7DDF9F96A012022698840104378
:103A4000206101EB810108EB8100391DFFF720FAAD
:103A5000F86A2168C96A8842C9D30126C7E700000D
:103A6000E8000020200900202DE9F0411E461546FF
:103A700088460746FFF718FA1C4C206890F850005B
:103A8000022814D02068C16CB943C16421680120A8
:103A900081F850005EB101213046FEF7F5FC144973
:103AA0004FF080500860BFF34F8FBFF36F8FFFF769
:103AB0001BFAFFF7F9F915B12068C06C286020687F
:103AC00090F85000022801D0002505E02068C16C64
:103AD00021EA0801C16401252168002081F8500015
:103AE000FFF702FA2846BDE8F0810000E800002058
:103AF00004ED00E070B504004FF0000140D0214D0E
:103B00002868844207D0502080F31188BFF34F8F7C
:103B1000BFF36F8FFEE7A06C38B1401EA064636CEA
:103B2000E26A9A422CD040B12AE0502080F31188FA
:103B3000BFF34F8FBFF36F8FFEE7201DFFF758F9DC
:103B4000114A012150B9E06A00EB800352F823309A
:103B500023B92B6901FA00F083432B61606CE062AA
:103B6000C0F10700A061E06A2B6981401943296117
:103B700000EB800002EB8000211DFFF789F9012195
:103B8000084670BDE8000020200900202DE9F04122
:103B9000C068C468ACB104F118000746FFF728F903
:103BA000154D286B0126A0B139461448FFF770F96E
:103BB000E06A2968C96A88421CD90120EE61BDE823
:103BC000F081502080F31188BFF34F8FBFF36F8FC8
:103BD000FEE7201DFFF70CF9E16A2A6906FA01F0F9
:103BE0001043286101EB81000449B43901EB8000E6
:103BF000211DDBE70020E2E7E8000020D4090020D7
:103C00002DE9F0472C4D00242746286B38B1FFF7EB
:103C10004BF9286B401E2863286B40B146E05020CA
:103C200080F31188BFF34F8FBFF36F8FFEE7A96852
:103C3000224E0120D1B3A6F1B40980463068E8B124
:103C4000F068C46804F11800FFF7D2F8201DFFF7F0
:103C5000CFF8E06A2A6908FA00F11143296100EB04
:103C6000800109EB8100211DFFF712F9E06A296844
:103C7000C96A8842E2D3C5F81C80DFE70CB1FEF7C1
:103C80002FFFAC6944B14646FFF788FE00B1EE61F4
:103C9000641EF9D10020A861E86938B108490127FC
:103CA00038070860BFF34F8FBFF36F8FFFF71CF922
:103CB0003846BDE8F0870000E8000020D409002065
:103CC00004ED00E02DE9FC4781461E461746884674
:103CD00028200A9DFEF7BAFF04000AD0002084F8CD
:103CE0002400CDE9005433463A4641464846FEF7A3
:103CF000A8FD2046BDE8FC877CB52826DDE90654F2
:103D0000009644B1022684F82460CDE90054FEF701
:103D100098FD20467CBD502080F31188BFF34F8F63
:103D2000BFF36F8FFEE7000010B586B0FEF74CFCC6
:103D3000114C2068B8B100200390049005AA04A992
:103D400003A8FFF773F8DDE9032102208DE80700DF
:103D500000230AA10B48059AFFF75FFD606010B1D0
:103D600006B0012010BD502080F31188BFF34F8FA3
:103D7000BFF36F8FFEE7000024010020546D722016
:103D800053766300BD2B0008FEB51E4613460200A5
:103D9000089D4FF0000014D0124C2768002F0FD060
:103DA000CDE900130292062915DAFFF7E3FD022898
:103DB0004FF000030DD0002269462068FFF71AFB80
:103DC000FEBD502080F31188BFF34F8FBFF36F8F7C
:103DD000FEE72A46F0E70023324669463846FFF7F9
:103DE000B9FBFEBD240100202104000800000000F2
:103DF00021040008000000000A0000000400000088
:103E000000000000000000000A00000004000000A4
:103E10000000000000000000B03E0008FD1B00088C
:103E20000000000000000000F4010000000000009D
:103E300000000000A03E0008851B0008FFFF0000F6
:103E400000000000F401000000000000000000007D
:103E5000A83E0008B11B00080000000000000000A0
:103E6000F40100000000000000000000B83E00085F
:103E7000651C00080000000000000000F4010000C4
:103E80000000000000000000000000000000000032
:103E900001020304060708090000000001020304F0
:103EA0005461736B310000005461736B3200000089
:103EB0005461736B330000005461736B3400000075
:103EC000E03E00080000002064010000C803000874
:103ED000683F00086401002094490000941F000816
:103EE00001202811090D0A204C45445F4F4E202027
:103EF00020090909047C093A3117AB4646186A3291
:103F0000184F544F47474C451B1918CA3318893767
:103F10006B3A341A180C524541445F53544154557E
:103F2000531B191C2B3A351B28125254435F505215
:103F3000494E545F4441544554494D551D20093A5A
:103F4000361D40195479706520796F7572206F7035
:103F500074696F6E2068657265203A2032018210A4
:083F6000037524F41AAA0141C3
:040000050800019955
:00000001FF
